{
  "_format": "hh-sol-artifact-1",
  "contractName": "MyNFT",
  "sourceName": "contracts/MyNFT.sol",
  "abi": [
    {
      "inputs": [],
      "stateMutability": "nonpayable",
      "type": "constructor"
    },
    {
      "anonymous": false,
      "inputs": [
        {
          "indexed": true,
          "internalType": "address",
          "name": "owner",
          "type": "address"
        },
        {
          "indexed": true,
          "internalType": "address",
          "name": "approved",
          "type": "address"
        },
        {
          "indexed": true,
          "internalType": "uint256",
          "name": "tokenId",
          "type": "uint256"
        }
      ],
      "name": "Approval",
      "type": "event"
    },
    {
      "anonymous": false,
      "inputs": [
        {
          "indexed": true,
          "internalType": "address",
          "name": "owner",
          "type": "address"
        },
        {
          "indexed": true,
          "internalType": "address",
          "name": "operator",
          "type": "address"
        },
        {
          "indexed": false,
          "internalType": "bool",
          "name": "approved",
          "type": "bool"
        }
      ],
      "name": "ApprovalForAll",
      "type": "event"
    },
    {
      "anonymous": false,
      "inputs": [
        {
          "indexed": true,
          "internalType": "address",
          "name": "previousOwner",
          "type": "address"
        },
        {
          "indexed": true,
          "internalType": "address",
          "name": "newOwner",
          "type": "address"
        }
      ],
      "name": "OwnershipTransferred",
      "type": "event"
    },
    {
      "anonymous": false,
      "inputs": [
        {
          "indexed": true,
          "internalType": "address",
          "name": "from",
          "type": "address"
        },
        {
          "indexed": true,
          "internalType": "address",
          "name": "to",
          "type": "address"
        },
        {
          "indexed": true,
          "internalType": "uint256",
          "name": "tokenId",
          "type": "uint256"
        }
      ],
      "name": "Transfer",
      "type": "event"
    },
    {
      "inputs": [
        {
          "internalType": "address",
          "name": "_owner",
          "type": "address"
        }
      ],
      "name": "DocumentsOfOwner",
      "outputs": [
        {
          "internalType": "uint256[]",
          "name": "",
          "type": "uint256[]"
        }
      ],
      "stateMutability": "view",
      "type": "function"
    },
    {
      "inputs": [
        {
          "internalType": "address",
          "name": "to",
          "type": "address"
        },
        {
          "internalType": "uint256",
          "name": "tokenId",
          "type": "uint256"
        }
      ],
      "name": "approve",
      "outputs": [],
      "stateMutability": "nonpayable",
      "type": "function"
    },
    {
      "inputs": [
        {
          "internalType": "address",
          "name": "owner",
          "type": "address"
        }
      ],
      "name": "balanceOf",
      "outputs": [
        {
          "internalType": "uint256",
          "name": "",
          "type": "uint256"
        }
      ],
      "stateMutability": "view",
      "type": "function"
    },
    {
      "inputs": [
        {
          "internalType": "uint256",
          "name": "tokenId",
          "type": "uint256"
        }
      ],
      "name": "getApproved",
      "outputs": [
        {
          "internalType": "address",
          "name": "",
          "type": "address"
        }
      ],
      "stateMutability": "view",
      "type": "function"
    },
    {
      "inputs": [
        {
          "internalType": "uint256",
          "name": "_tokenId",
          "type": "uint256"
        }
      ],
      "name": "getDocumentExists",
      "outputs": [
        {
          "internalType": "bool",
          "name": "",
          "type": "bool"
        }
      ],
      "stateMutability": "view",
      "type": "function"
    },
    {
      "inputs": [],
      "name": "getNumberOfDocumentsMinted",
      "outputs": [
        {
          "internalType": "uint256",
          "name": "",
          "type": "uint256"
        }
      ],
      "stateMutability": "view",
      "type": "function"
    },
    {
      "inputs": [
        {
          "internalType": "address",
          "name": "owner",
          "type": "address"
        },
        {
          "internalType": "address",
          "name": "operator",
          "type": "address"
        }
      ],
      "name": "isApprovedForAll",
      "outputs": [
        {
          "internalType": "bool",
          "name": "",
          "type": "bool"
        }
      ],
      "stateMutability": "view",
      "type": "function"
    },
    {
      "inputs": [
        {
          "internalType": "string",
          "name": "uri",
          "type": "string"
        }
      ],
      "name": "mint",
      "outputs": [],
      "stateMutability": "nonpayable",
      "type": "function"
    },
    {
      "inputs": [],
      "name": "name",
      "outputs": [
        {
          "internalType": "string",
          "name": "",
          "type": "string"
        }
      ],
      "stateMutability": "view",
      "type": "function"
    },
    {
      "inputs": [],
      "name": "owner",
      "outputs": [
        {
          "internalType": "address",
          "name": "",
          "type": "address"
        }
      ],
      "stateMutability": "view",
      "type": "function"
    },
    {
      "inputs": [
        {
          "internalType": "uint256",
          "name": "tokenId",
          "type": "uint256"
        }
      ],
      "name": "ownerOf",
      "outputs": [
        {
          "internalType": "address",
          "name": "",
          "type": "address"
        }
      ],
      "stateMutability": "view",
      "type": "function"
    },
    {
      "inputs": [],
      "name": "renounceOwnership",
      "outputs": [],
      "stateMutability": "nonpayable",
      "type": "function"
    },
    {
      "inputs": [
        {
          "internalType": "address",
          "name": "to",
          "type": "address"
        },
        {
          "internalType": "string",
          "name": "uri",
          "type": "string"
        }
      ],
      "name": "safeMint",
      "outputs": [],
      "stateMutability": "nonpayable",
      "type": "function"
    },
    {
      "inputs": [
        {
          "internalType": "address",
          "name": "from",
          "type": "address"
        },
        {
          "internalType": "address",
          "name": "to",
          "type": "address"
        },
        {
          "internalType": "uint256",
          "name": "tokenId",
          "type": "uint256"
        }
      ],
      "name": "safeTransferFrom",
      "outputs": [],
      "stateMutability": "nonpayable",
      "type": "function"
    },
    {
      "inputs": [
        {
          "internalType": "address",
          "name": "from",
          "type": "address"
        },
        {
          "internalType": "address",
          "name": "to",
          "type": "address"
        },
        {
          "internalType": "uint256",
          "name": "tokenId",
          "type": "uint256"
        },
        {
          "internalType": "bytes",
          "name": "_data",
          "type": "bytes"
        }
      ],
      "name": "safeTransferFrom",
      "outputs": [],
      "stateMutability": "nonpayable",
      "type": "function"
    },
    {
      "inputs": [
        {
          "internalType": "address",
          "name": "operator",
          "type": "address"
        },
        {
          "internalType": "bool",
          "name": "approved",
          "type": "bool"
        }
      ],
      "name": "setApprovalForAll",
      "outputs": [],
      "stateMutability": "nonpayable",
      "type": "function"
    },
    {
      "inputs": [
        {
          "internalType": "bytes4",
          "name": "interfaceId",
          "type": "bytes4"
        }
      ],
      "name": "supportsInterface",
      "outputs": [
        {
          "internalType": "bool",
          "name": "",
          "type": "bool"
        }
      ],
      "stateMutability": "view",
      "type": "function"
    },
    {
      "inputs": [],
      "name": "symbol",
      "outputs": [
        {
          "internalType": "string",
          "name": "",
          "type": "string"
        }
      ],
      "stateMutability": "view",
      "type": "function"
    },
    {
      "inputs": [
        {
          "internalType": "uint256",
          "name": "index",
          "type": "uint256"
        }
      ],
      "name": "tokenByIndex",
      "outputs": [
        {
          "internalType": "uint256",
          "name": "",
          "type": "uint256"
        }
      ],
      "stateMutability": "view",
      "type": "function"
    },
    {
      "inputs": [
        {
          "internalType": "address",
          "name": "owner",
          "type": "address"
        },
        {
          "internalType": "uint256",
          "name": "index",
          "type": "uint256"
        }
      ],
      "name": "tokenOfOwnerByIndex",
      "outputs": [
        {
          "internalType": "uint256",
          "name": "",
          "type": "uint256"
        }
      ],
      "stateMutability": "view",
      "type": "function"
    },
    {
      "inputs": [
        {
          "internalType": "uint256",
          "name": "tokenId",
          "type": "uint256"
        }
      ],
      "name": "tokenURI",
      "outputs": [
        {
          "internalType": "string",
          "name": "",
          "type": "string"
        }
      ],
      "stateMutability": "view",
      "type": "function"
    },
    {
      "inputs": [],
      "name": "totalSupply",
      "outputs": [
        {
          "internalType": "uint256",
          "name": "",
          "type": "uint256"
        }
      ],
      "stateMutability": "view",
      "type": "function"
    },
    {
      "inputs": [
        {
          "internalType": "address",
          "name": "from",
          "type": "address"
        },
        {
          "internalType": "address",
          "name": "to",
          "type": "address"
        },
        {
          "internalType": "uint256",
          "name": "tokenId",
          "type": "uint256"
        }
      ],
      "name": "transferFrom",
      "outputs": [],
      "stateMutability": "nonpayable",
      "type": "function"
    },
    {
      "inputs": [
        {
          "internalType": "address",
          "name": "from",
          "type": "address"
        },
        {
          "internalType": "address",
          "name": "to",
          "type": "address"
        },
        {
          "internalType": "uint256",
          "name": "tokenId",
          "type": "uint256"
        }
      ],
      "name": "transferNFT",
      "outputs": [],
      "stateMutability": "nonpayable",
      "type": "function"
    },
    {
      "inputs": [
        {
          "internalType": "address",
          "name": "newOwner",
          "type": "address"
        }
      ],
      "name": "transferOwnership",
      "outputs": [],
      "stateMutability": "nonpayable",
      "type": "function"
    }
  ],
  "bytecode": "0x60806040523480156200001157600080fd5b506040518060400160405280600681526020017f446f634e465400000000000000000000000000000000000000000000000000008152506040518060400160405280600481526020017f444e465400000000000000000000000000000000000000000000000000000000815250816000908051906020019062000096929190620001a6565b508060019080519060200190620000af929190620001a6565b505050620000d2620000c6620000d860201b60201c565b620000e060201b60201c565b620002bb565b600033905090565b6000600b60009054906101000a900473ffffffffffffffffffffffffffffffffffffffff16905081600b60006101000a81548173ffffffffffffffffffffffffffffffffffffffff021916908373ffffffffffffffffffffffffffffffffffffffff1602179055508173ffffffffffffffffffffffffffffffffffffffff168173ffffffffffffffffffffffffffffffffffffffff167f8be0079c531659141344cd1fd0a4f28419497f9722a3daafe3b4186f6b6457e060405160405180910390a35050565b828054620001b49062000256565b90600052602060002090601f016020900481019282620001d8576000855562000224565b82601f10620001f357805160ff191683800117855562000224565b8280016001018555821562000224579182015b828111156200022357825182559160200191906001019062000206565b5b50905062000233919062000237565b5090565b5b808211156200025257600081600090555060010162000238565b5090565b600060028204905060018216806200026f57607f821691505b602082108114156200028657620002856200028c565b5b50919050565b7f4e487b7100000000000000000000000000000000000000000000000000000000600052602260045260246000fd5b613c1080620002cb6000396000f3fe608060405234801561001057600080fd5b50600436106101735760003560e01c8063715018a6116100de578063b88d4fde11610097578063d85d3d2711610071578063d85d3d271461045c578063e07622ee14610478578063e985e9c5146104a8578063f2fde38b146104d857610173565b8063b88d4fde146103f4578063c87b56dd14610410578063d204c45e1461044057610173565b8063715018a614610344578063869000c11461034e5780638da5cb5b1461036c57806395d89b411461038a578063a22cb465146103a8578063b7fd385c146103c457610173565b80632f745c59116101305780632f745c591461024c57806342842e0e1461027c5780634f6ccce7146102985780636352211e146102c857806369e9cae1146102f857806370a082311461031457610173565b806301ffc9a71461017857806306fdde03146101a8578063081812fc146101c6578063095ea7b3146101f657806318160ddd1461021257806323b872dd14610230575b600080fd5b610192600480360381019061018d919061297a565b6104f4565b60405161019f9190612ef4565b60405180910390f35b6101b0610506565b6040516101bd9190612f0f565b60405180910390f35b6101e060048036038101906101db9190612a0d565b610598565b6040516101ed9190612e6b565b60405180910390f35b610210600480360381019061020b919061293e565b61061d565b005b61021a610735565b60405161022791906131b1565b60405180910390f35b61024a600480360381019061024591906127e4565b610742565b005b6102666004803603810190610261919061293e565b6107a2565b60405161027391906131b1565b60405180910390f35b610296600480360381019061029191906127e4565b610847565b005b6102b260048036038101906102ad9190612a0d565b610867565b6040516102bf91906131b1565b60405180910390f35b6102e260048036038101906102dd9190612a0d565b6108fe565b6040516102ef9190612e6b565b60405180910390f35b610312600480360381019061030d91906127e4565b6109b0565b005b61032e6004803603810190610329919061277f565b6109c0565b60405161033b91906131b1565b60405180910390f35b61034c610a78565b005b610356610b00565b60405161036391906131b1565b60405180910390f35b610374610b14565b6040516103819190612e6b565b60405180910390f35b610392610b3e565b60405161039f9190612f0f565b60405180910390f35b6103c260048036038101906103bd91906128ae565b610bd0565b005b6103de60048036038101906103d99190612a0d565b610be6565b6040516103eb9190612ef4565b60405180910390f35b61040e60048036038101906104099190612833565b610bfd565b005b61042a60048036038101906104259190612a0d565b610c5f565b6040516104379190612f0f565b60405180910390f35b61045a600480360381019061045591906128ea565b610c71565b005b610476600480360381019061047191906129cc565b610d1e565b005b610492600480360381019061048d919061277f565b610d4e565b60405161049f9190612ed2565b60405180910390f35b6104c260048036038101906104bd91906127a8565b610e48565b6040516104cf9190612ef4565b60405180910390f35b6104f260048036038101906104ed919061277f565b610edc565b005b60006104ff82610fd4565b9050919050565b60606000805461051590613440565b80601f016020809104026020016040519081016040528092919081815260200182805461054190613440565b801561058e5780601f106105635761010080835404028352916020019161058e565b820191906000526020600020905b81548152906001019060200180831161057157829003601f168201915b5050505050905090565b60006105a38261104e565b6105e2576040517f08c379a00000000000000000000000000000000000000000000000000000000081526004016105d9906130f1565b60405180910390fd5b6004600083815260200190815260200160002060009054906101000a900473ffffffffffffffffffffffffffffffffffffffff169050919050565b6000610628826108fe565b90508073ffffffffffffffffffffffffffffffffffffffff168373ffffffffffffffffffffffffffffffffffffffff161415610699576040517f08c379a000000000000000000000000000000000000000000000000000000000815260040161069090613151565b60405180910390fd5b8073ffffffffffffffffffffffffffffffffffffffff166106b86110ba565b73ffffffffffffffffffffffffffffffffffffffff1614806106e757506106e6816106e16110ba565b610e48565b5b610726576040517f08c379a000000000000000000000000000000000000000000000000000000000815260040161071d90613031565b60405180910390fd5b61073083836110c2565b505050565b6000600880549050905090565b61075361074d6110ba565b8261117b565b610792576040517f08c379a000000000000000000000000000000000000000000000000000000000815260040161078990613171565b60405180910390fd5b61079d838383611259565b505050565b60006107ad836109c0565b82106107ee576040517f08c379a00000000000000000000000000000000000000000000000000000000081526004016107e590612f31565b60405180910390fd5b600660008473ffffffffffffffffffffffffffffffffffffffff1673ffffffffffffffffffffffffffffffffffffffff168152602001908152602001600020600083815260200190815260200160002054905092915050565b61086283838360405180602001604052806000815250610bfd565b505050565b6000610871610735565b82106108b2576040517f08c379a00000000000000000000000000000000000000000000000000000000081526004016108a990613191565b60405180910390fd5b600882815481106108ec577f4e487b7100000000000000000000000000000000000000000000000000000000600052603260045260246000fd5b90600052602060002001549050919050565b6000806002600084815260200190815260200160002060009054906101000a900473ffffffffffffffffffffffffffffffffffffffff169050600073ffffffffffffffffffffffffffffffffffffffff168173ffffffffffffffffffffffffffffffffffffffff1614156109a7576040517f08c379a000000000000000000000000000000000000000000000000000000000815260040161099e90613071565b60405180910390fd5b80915050919050565b6109bb838383611259565b505050565b60008073ffffffffffffffffffffffffffffffffffffffff168273ffffffffffffffffffffffffffffffffffffffff161415610a31576040517f08c379a0000000000000000000000000000000000000000000000000000000008152600401610a2890613051565b60405180910390fd5b600360008373ffffffffffffffffffffffffffffffffffffffff1673ffffffffffffffffffffffffffffffffffffffff168152602001908152602001600020549050919050565b610a806110ba565b73ffffffffffffffffffffffffffffffffffffffff16610a9e610b14565b73ffffffffffffffffffffffffffffffffffffffff1614610af4576040517f08c379a0000000000000000000000000000000000000000000000000000000008152600401610aeb90613111565b60405180910390fd5b610afe60006114c0565b565b600080610b0b610735565b90508091505090565b6000600b60009054906101000a900473ffffffffffffffffffffffffffffffffffffffff16905090565b606060018054610b4d90613440565b80601f0160208091040260200160405190810160405280929190818152602001828054610b7990613440565b8015610bc65780601f10610b9b57610100808354040283529160200191610bc6565b820191906000526020600020905b815481529060010190602001808311610ba957829003601f168201915b5050505050905090565b610be2610bdb6110ba565b8383611586565b5050565b600080610bf28361104e565b905080915050919050565b610c0e610c086110ba565b8361117b565b610c4d576040517f08c379a0000000000000000000000000000000000000000000000000000000008152600401610c4490613171565b60405180910390fd5b610c59848484846116f3565b50505050565b6060610c6a8261174f565b9050919050565b610c796110ba565b73ffffffffffffffffffffffffffffffffffffffff16610c97610b14565b73ffffffffffffffffffffffffffffffffffffffff1614610ced576040517f08c379a0000000000000000000000000000000000000000000000000000000008152600401610ce490613111565b60405180910390fd5b6000610cf9600c6118a1565b9050610d05600c6118af565b610d0f83826118c5565b610d1981836118e3565b505050565b6000610d2a600c6118a1565b9050610d36600c6118af565b610d4033826118c5565b610d4a81836118e3565b5050565b60606000610d5b836109c0565b905060008167ffffffffffffffff811115610d9f577f4e487b7100000000000000000000000000000000000000000000000000000000600052604160045260246000fd5b604051908082528060200260200182016040528015610dcd5781602001602082028036833780820191505090505b50905060005b82811015610e3d57610de585826107a2565b828281518110610e1e577f4e487b7100000000000000000000000000000000000000000000000000000000600052603260045260246000fd5b6020026020010181815250508080610e35906134a3565b915050610dd3565b508092505050919050565b6000600560008473ffffffffffffffffffffffffffffffffffffffff1673ffffffffffffffffffffffffffffffffffffffff16815260200190815260200160002060008373ffffffffffffffffffffffffffffffffffffffff1673ffffffffffffffffffffffffffffffffffffffff16815260200190815260200160002060009054906101000a900460ff16905092915050565b610ee46110ba565b73ffffffffffffffffffffffffffffffffffffffff16610f02610b14565b73ffffffffffffffffffffffffffffffffffffffff1614610f58576040517f08c379a0000000000000000000000000000000000000000000000000000000008152600401610f4f90613111565b60405180910390fd5b600073ffffffffffffffffffffffffffffffffffffffff168173ffffffffffffffffffffffffffffffffffffffff161415610fc8576040517f08c379a0000000000000000000000000000000000000000000000000000000008152600401610fbf90612f71565b60405180910390fd5b610fd1816114c0565b50565b60007f780e9d63000000000000000000000000000000000000000000000000000000007bffffffffffffffffffffffffffffffffffffffffffffffffffffffff1916827bffffffffffffffffffffffffffffffffffffffffffffffffffffffff19161480611047575061104682611957565b5b9050919050565b60008073ffffffffffffffffffffffffffffffffffffffff166002600084815260200190815260200160002060009054906101000a900473ffffffffffffffffffffffffffffffffffffffff1673ffffffffffffffffffffffffffffffffffffffff1614159050919050565b600033905090565b816004600083815260200190815260200160002060006101000a81548173ffffffffffffffffffffffffffffffffffffffff021916908373ffffffffffffffffffffffffffffffffffffffff160217905550808273ffffffffffffffffffffffffffffffffffffffff16611135836108fe565b73ffffffffffffffffffffffffffffffffffffffff167f8c5be1e5ebec7d5bd14f71427d1e84f3dd0314c0f7b2291e5b200ac8c7c3b92560405160405180910390a45050565b60006111868261104e565b6111c5576040517f08c379a00000000000000000000000000000000000000000000000000000000081526004016111bc90613011565b60405180910390fd5b60006111d0836108fe565b90508073ffffffffffffffffffffffffffffffffffffffff168473ffffffffffffffffffffffffffffffffffffffff16148061121257506112118185610e48565b5b8061125057508373ffffffffffffffffffffffffffffffffffffffff1661123884610598565b73ffffffffffffffffffffffffffffffffffffffff16145b91505092915050565b8273ffffffffffffffffffffffffffffffffffffffff16611279826108fe565b73ffffffffffffffffffffffffffffffffffffffff16146112cf576040517f08c379a00000000000000000000000000000000000000000000000000000000081526004016112c690612f91565b60405180910390fd5b600073ffffffffffffffffffffffffffffffffffffffff168273ffffffffffffffffffffffffffffffffffffffff16141561133f576040517f08c379a000000000000000000000000000000000000000000000000000000000815260040161133690612fd1565b60405180910390fd5b61134a838383611a39565b6113556000826110c2565b6001600360008573ffffffffffffffffffffffffffffffffffffffff1673ffffffffffffffffffffffffffffffffffffffff16815260200190815260200160002060008282546113a59190613356565b925050819055506001600360008473ffffffffffffffffffffffffffffffffffffffff1673ffffffffffffffffffffffffffffffffffffffff16815260200190815260200160002060008282546113fc91906132cf565b92505081905550816002600083815260200190815260200160002060006101000a81548173ffffffffffffffffffffffffffffffffffffffff021916908373ffffffffffffffffffffffffffffffffffffffff160217905550808273ffffffffffffffffffffffffffffffffffffffff168473ffffffffffffffffffffffffffffffffffffffff167fddf252ad1be2c89b69c2b068fc378daa952ba7f163c4a11628f55a4df523b3ef60405160405180910390a46114bb838383611a49565b505050565b6000600b60009054906101000a900473ffffffffffffffffffffffffffffffffffffffff16905081600b60006101000a81548173ffffffffffffffffffffffffffffffffffffffff021916908373ffffffffffffffffffffffffffffffffffffffff1602179055508173ffffffffffffffffffffffffffffffffffffffff168173ffffffffffffffffffffffffffffffffffffffff167f8be0079c531659141344cd1fd0a4f28419497f9722a3daafe3b4186f6b6457e060405160405180910390a35050565b8173ffffffffffffffffffffffffffffffffffffffff168373ffffffffffffffffffffffffffffffffffffffff1614156115f5576040517f08c379a00000000000000000000000000000000000000000000000000000000081526004016115ec90612ff1565b60405180910390fd5b80600560008573ffffffffffffffffffffffffffffffffffffffff1673ffffffffffffffffffffffffffffffffffffffff16815260200190815260200160002060008473ffffffffffffffffffffffffffffffffffffffff1673ffffffffffffffffffffffffffffffffffffffff16815260200190815260200160002060006101000a81548160ff0219169083151502179055508173ffffffffffffffffffffffffffffffffffffffff168373ffffffffffffffffffffffffffffffffffffffff167f17307eab39ab6107e8899845ad3d59bd9653f200f220920489ca2b5937696c31836040516116e69190612ef4565b60405180910390a3505050565b6116fe848484611259565b61170a84848484611a4e565b611749576040517f08c379a000000000000000000000000000000000000000000000000000000000815260040161174090612f51565b60405180910390fd5b50505050565b606061175a8261104e565b611799576040517f08c379a0000000000000000000000000000000000000000000000000000000008152600401611790906130d1565b60405180910390fd5b6000600a600084815260200190815260200160002080546117b990613440565b80601f01602080910402602001604051908101604052809291908181526020018280546117e590613440565b80156118325780601f1061180757610100808354040283529160200191611832565b820191906000526020600020905b81548152906001019060200180831161181557829003601f168201915b505050505090506000611843611be5565b905060008151141561185957819250505061189c565b60008251111561188e578082604051602001611876929190612e47565b6040516020818303038152906040529250505061189c565b61189784611bfc565b925050505b919050565b600081600001549050919050565b6001816000016000828254019250508190555050565b6118df828260405180602001604052806000815250611ca3565b5050565b6118ec8261104e565b61192b576040517f08c379a000000000000000000000000000000000000000000000000000000000815260040161192290613091565b60405180910390fd5b80600a600084815260200190815260200160002090805190602001906119529291906125a3565b505050565b60007f80ac58cd000000000000000000000000000000000000000000000000000000007bffffffffffffffffffffffffffffffffffffffffffffffffffffffff1916827bffffffffffffffffffffffffffffffffffffffffffffffffffffffff19161480611a2257507f5b5e139f000000000000000000000000000000000000000000000000000000007bffffffffffffffffffffffffffffffffffffffffffffffffffffffff1916827bffffffffffffffffffffffffffffffffffffffffffffffffffffffff1916145b80611a325750611a3182611cfe565b5b9050919050565b611a44838383611d68565b505050565b505050565b6000611a6f8473ffffffffffffffffffffffffffffffffffffffff16611e7c565b15611bd8578373ffffffffffffffffffffffffffffffffffffffff1663150b7a02611a986110ba565b8786866040518563ffffffff1660e01b8152600401611aba9493929190612e86565b602060405180830381600087803b158015611ad457600080fd5b505af1925050508015611b0557506040513d601f19601f82011682018060405250810190611b0291906129a3565b60015b611b88573d8060008114611b35576040519150601f19603f3d011682016040523d82523d6000602084013e611b3a565b606091505b50600081511415611b80576040517f08c379a0000000000000000000000000000000000000000000000000000000008152600401611b7790612f51565b60405180910390fd5b805181602001fd5b63150b7a0260e01b7bffffffffffffffffffffffffffffffffffffffffffffffffffffffff1916817bffffffffffffffffffffffffffffffffffffffffffffffffffffffff191614915050611bdd565b600190505b949350505050565b606060405180602001604052806000815250905090565b6060611c078261104e565b611c46576040517f08c379a0000000000000000000000000000000000000000000000000000000008152600401611c3d90613131565b60405180910390fd5b6000611c50611be5565b90506000815111611c705760405180602001604052806000815250611c9b565b80611c7a84611e9f565b604051602001611c8b929190612e47565b6040516020818303038152906040525b915050919050565b611cad838361204c565b611cba6000848484611a4e565b611cf9576040517f08c379a0000000000000000000000000000000000000000000000000000000008152600401611cf090612f51565b60405180910390fd5b505050565b60007f01ffc9a7000000000000000000000000000000000000000000000000000000007bffffffffffffffffffffffffffffffffffffffffffffffffffffffff1916827bffffffffffffffffffffffffffffffffffffffffffffffffffffffff1916149050919050565b611d73838383612226565b600073ffffffffffffffffffffffffffffffffffffffff168373ffffffffffffffffffffffffffffffffffffffff161415611db657611db18161222b565b611df5565b8173ffffffffffffffffffffffffffffffffffffffff168373ffffffffffffffffffffffffffffffffffffffff1614611df457611df38382612274565b5b5b600073ffffffffffffffffffffffffffffffffffffffff168273ffffffffffffffffffffffffffffffffffffffff161415611e3857611e33816123e1565b611e77565b8273ffffffffffffffffffffffffffffffffffffffff168273ffffffffffffffffffffffffffffffffffffffff1614611e7657611e758282612524565b5b5b505050565b6000808273ffffffffffffffffffffffffffffffffffffffff163b119050919050565b60606000821415611ee7576040518060400160405280600181526020017f30000000000000000000000000000000000000000000000000000000000000008152509050612047565b600082905060005b60008214611f19578080611f02906134a3565b915050600a82611f129190613325565b9150611eef565b60008167ffffffffffffffff811115611f5b577f4e487b7100000000000000000000000000000000000000000000000000000000600052604160045260246000fd5b6040519080825280601f01601f191660200182016040528015611f8d5781602001600182028036833780820191505090505b5090505b6000851461204057600182611fa69190613356565b9150600a85611fb591906134ec565b6030611fc191906132cf565b60f81b818381518110611ffd577f4e487b7100000000000000000000000000000000000000000000000000000000600052603260045260246000fd5b60200101907effffffffffffffffffffffffffffffffffffffffffffffffffffffffffffff1916908160001a905350600a856120399190613325565b9450611f91565b8093505050505b919050565b600073ffffffffffffffffffffffffffffffffffffffff168273ffffffffffffffffffffffffffffffffffffffff1614156120bc576040517f08c379a00000000000000000000000000000000000000000000000000000000081526004016120b3906130b1565b60405180910390fd5b6120c58161104e565b15612105576040517f08c379a00000000000000000000000000000000000000000000000000000000081526004016120fc90612fb1565b60405180910390fd5b61211160008383611a39565b6001600360008473ffffffffffffffffffffffffffffffffffffffff1673ffffffffffffffffffffffffffffffffffffffff168152602001908152602001600020600082825461216191906132cf565b92505081905550816002600083815260200190815260200160002060006101000a81548173ffffffffffffffffffffffffffffffffffffffff021916908373ffffffffffffffffffffffffffffffffffffffff160217905550808273ffffffffffffffffffffffffffffffffffffffff16600073ffffffffffffffffffffffffffffffffffffffff167fddf252ad1be2c89b69c2b068fc378daa952ba7f163c4a11628f55a4df523b3ef60405160405180910390a461222260008383611a49565b5050565b505050565b6008805490506009600083815260200190815260200160002081905550600881908060018154018082558091505060019003906000526020600020016000909190919091505550565b60006001612281846109c0565b61228b9190613356565b9050600060076000848152602001908152602001600020549050818114612370576000600660008673ffffffffffffffffffffffffffffffffffffffff1673ffffffffffffffffffffffffffffffffffffffff168152602001908152602001600020600084815260200190815260200160002054905080600660008773ffffffffffffffffffffffffffffffffffffffff1673ffffffffffffffffffffffffffffffffffffffff168152602001908152602001600020600084815260200190815260200160002081905550816007600083815260200190815260200160002081905550505b6007600084815260200190815260200160002060009055600660008573ffffffffffffffffffffffffffffffffffffffff1673ffffffffffffffffffffffffffffffffffffffff16815260200190815260200160002060008381526020019081526020016000206000905550505050565b600060016008805490506123f59190613356565b905060006009600084815260200190815260200160002054905060006008838154811061244b577f4e487b7100000000000000000000000000000000000000000000000000000000600052603260045260246000fd5b906000526020600020015490508060088381548110612493577f4e487b7100000000000000000000000000000000000000000000000000000000600052603260045260246000fd5b906000526020600020018190555081600960008381526020019081526020016000208190555060096000858152602001908152602001600020600090556008805480612508577f4e487b7100000000000000000000000000000000000000000000000000000000600052603160045260246000fd5b6001900381819060005260206000200160009055905550505050565b600061252f836109c0565b905081600660008573ffffffffffffffffffffffffffffffffffffffff1673ffffffffffffffffffffffffffffffffffffffff168152602001908152602001600020600083815260200190815260200160002081905550806007600084815260200190815260200160002081905550505050565b8280546125af90613440565b90600052602060002090601f0160209004810192826125d15760008555612618565b82601f106125ea57805160ff1916838001178555612618565b82800160010185558215612618579182015b828111156126175782518255916020019190600101906125fc565b5b5090506126259190612629565b5090565b5b8082111561264257600081600090555060010161262a565b5090565b6000612659612654846131f1565b6131cc565b90508281526020810184848401111561267157600080fd5b61267c8482856133fe565b509392505050565b600061269761269284613222565b6131cc565b9050828152602081018484840111156126af57600080fd5b6126ba8482856133fe565b509392505050565b6000813590506126d181613b7e565b92915050565b6000813590506126e681613b95565b92915050565b6000813590506126fb81613bac565b92915050565b60008151905061271081613bac565b92915050565b600082601f83011261272757600080fd5b8135612737848260208601612646565b91505092915050565b600082601f83011261275157600080fd5b8135612761848260208601612684565b91505092915050565b60008135905061277981613bc3565b92915050565b60006020828403121561279157600080fd5b600061279f848285016126c2565b91505092915050565b600080604083850312156127bb57600080fd5b60006127c9858286016126c2565b92505060206127da858286016126c2565b9150509250929050565b6000806000606084860312156127f957600080fd5b6000612807868287016126c2565b9350506020612818868287016126c2565b92505060406128298682870161276a565b9150509250925092565b6000806000806080858703121561284957600080fd5b6000612857878288016126c2565b9450506020612868878288016126c2565b93505060406128798782880161276a565b925050606085013567ffffffffffffffff81111561289657600080fd5b6128a287828801612716565b91505092959194509250565b600080604083850312156128c157600080fd5b60006128cf858286016126c2565b92505060206128e0858286016126d7565b9150509250929050565b600080604083850312156128fd57600080fd5b600061290b858286016126c2565b925050602083013567ffffffffffffffff81111561292857600080fd5b61293485828601612740565b9150509250929050565b6000806040838503121561295157600080fd5b600061295f858286016126c2565b92505060206129708582860161276a565b9150509250929050565b60006020828403121561298c57600080fd5b600061299a848285016126ec565b91505092915050565b6000602082840312156129b557600080fd5b60006129c384828501612701565b91505092915050565b6000602082840312156129de57600080fd5b600082013567ffffffffffffffff8111156129f857600080fd5b612a0484828501612740565b91505092915050565b600060208284031215612a1f57600080fd5b6000612a2d8482850161276a565b91505092915050565b6000612a428383612e29565b60208301905092915050565b612a578161338a565b82525050565b6000612a6882613263565b612a728185613291565b9350612a7d83613253565b8060005b83811015612aae578151612a958882612a36565b9750612aa083613284565b925050600181019050612a81565b5085935050505092915050565b612ac48161339c565b82525050565b6000612ad58261326e565b612adf81856132a2565b9350612aef81856020860161340d565b612af8816135d9565b840191505092915050565b6000612b0e82613279565b612b1881856132b3565b9350612b2881856020860161340d565b612b31816135d9565b840191505092915050565b6000612b4782613279565b612b5181856132c4565b9350612b6181856020860161340d565b80840191505092915050565b6000612b7a602b836132b3565b9150612b85826135ea565b604082019050919050565b6000612b9d6032836132b3565b9150612ba882613639565b604082019050919050565b6000612bc06026836132b3565b9150612bcb82613688565b604082019050919050565b6000612be36025836132b3565b9150612bee826136d7565b604082019050919050565b6000612c06601c836132b3565b9150612c1182613726565b602082019050919050565b6000612c296024836132b3565b9150612c348261374f565b604082019050919050565b6000612c4c6019836132b3565b9150612c578261379e565b602082019050919050565b6000612c6f602c836132b3565b9150612c7a826137c7565b604082019050919050565b6000612c926038836132b3565b9150612c9d82613816565b604082019050919050565b6000612cb5602a836132b3565b9150612cc082613865565b604082019050919050565b6000612cd86029836132b3565b9150612ce3826138b4565b604082019050919050565b6000612cfb602e836132b3565b9150612d0682613903565b604082019050919050565b6000612d1e6020836132b3565b9150612d2982613952565b602082019050919050565b6000612d416031836132b3565b9150612d4c8261397b565b604082019050919050565b6000612d64602c836132b3565b9150612d6f826139ca565b604082019050919050565b6000612d876020836132b3565b9150612d9282613a19565b602082019050919050565b6000612daa602f836132b3565b9150612db582613a42565b604082019050919050565b6000612dcd6021836132b3565b9150612dd882613a91565b604082019050919050565b6000612df06031836132b3565b9150612dfb82613ae0565b604082019050919050565b6000612e13602c836132b3565b9150612e1e82613b2f565b604082019050919050565b612e32816133f4565b82525050565b612e41816133f4565b82525050565b6000612e538285612b3c565b9150612e5f8284612b3c565b91508190509392505050565b6000602082019050612e806000830184612a4e565b92915050565b6000608082019050612e9b6000830187612a4e565b612ea86020830186612a4e565b612eb56040830185612e38565b8181036060830152612ec78184612aca565b905095945050505050565b60006020820190508181036000830152612eec8184612a5d565b905092915050565b6000602082019050612f096000830184612abb565b92915050565b60006020820190508181036000830152612f298184612b03565b905092915050565b60006020820190508181036000830152612f4a81612b6d565b9050919050565b60006020820190508181036000830152612f6a81612b90565b9050919050565b60006020820190508181036000830152612f8a81612bb3565b9050919050565b60006020820190508181036000830152612faa81612bd6565b9050919050565b60006020820190508181036000830152612fca81612bf9565b9050919050565b60006020820190508181036000830152612fea81612c1c565b9050919050565b6000602082019050818103600083015261300a81612c3f565b9050919050565b6000602082019050818103600083015261302a81612c62565b9050919050565b6000602082019050818103600083015261304a81612c85565b9050919050565b6000602082019050818103600083015261306a81612ca8565b9050919050565b6000602082019050818103600083015261308a81612ccb565b9050919050565b600060208201905081810360008301526130aa81612cee565b9050919050565b600060208201905081810360008301526130ca81612d11565b9050919050565b600060208201905081810360008301526130ea81612d34565b9050919050565b6000602082019050818103600083015261310a81612d57565b9050919050565b6000602082019050818103600083015261312a81612d7a565b9050919050565b6000602082019050818103600083015261314a81612d9d565b9050919050565b6000602082019050818103600083015261316a81612dc0565b9050919050565b6000602082019050818103600083015261318a81612de3565b9050919050565b600060208201905081810360008301526131aa81612e06565b9050919050565b60006020820190506131c66000830184612e38565b92915050565b60006131d66131e7565b90506131e28282613472565b919050565b6000604051905090565b600067ffffffffffffffff82111561320c5761320b6135aa565b5b613215826135d9565b9050602081019050919050565b600067ffffffffffffffff82111561323d5761323c6135aa565b5b613246826135d9565b9050602081019050919050565b6000819050602082019050919050565b600081519050919050565b600081519050919050565b600081519050919050565b6000602082019050919050565b600082825260208201905092915050565b600082825260208201905092915050565b600082825260208201905092915050565b600081905092915050565b60006132da826133f4565b91506132e5836133f4565b9250827fffffffffffffffffffffffffffffffffffffffffffffffffffffffffffffffff0382111561331a5761331961351d565b5b828201905092915050565b6000613330826133f4565b915061333b836133f4565b92508261334b5761334a61354c565b5b828204905092915050565b6000613361826133f4565b915061336c836133f4565b92508282101561337f5761337e61351d565b5b828203905092915050565b6000613395826133d4565b9050919050565b60008115159050919050565b60007fffffffff0000000000000000000000000000000000000000000000000000000082169050919050565b600073ffffffffffffffffffffffffffffffffffffffff82169050919050565b6000819050919050565b82818337600083830152505050565b60005b8381101561342b578082015181840152602081019050613410565b8381111561343a576000848401525b50505050565b6000600282049050600182168061345857607f821691505b6020821081141561346c5761346b61357b565b5b50919050565b61347b826135d9565b810181811067ffffffffffffffff8211171561349a576134996135aa565b5b80604052505050565b60006134ae826133f4565b91507fffffffffffffffffffffffffffffffffffffffffffffffffffffffffffffffff8214156134e1576134e061351d565b5b600182019050919050565b60006134f7826133f4565b9150613502836133f4565b9250826135125761351161354c565b5b828206905092915050565b7f4e487b7100000000000000000000000000000000000000000000000000000000600052601160045260246000fd5b7f4e487b7100000000000000000000000000000000000000000000000000000000600052601260045260246000fd5b7f4e487b7100000000000000000000000000000000000000000000000000000000600052602260045260246000fd5b7f4e487b7100000000000000000000000000000000000000000000000000000000600052604160045260246000fd5b6000601f19601f8301169050919050565b7f455243373231456e756d657261626c653a206f776e657220696e646578206f7560008201527f74206f6620626f756e6473000000000000000000000000000000000000000000602082015250565b7f4552433732313a207472616e7366657220746f206e6f6e20455243373231526560008201527f63656976657220696d706c656d656e7465720000000000000000000000000000602082015250565b7f4f776e61626c653a206e6577206f776e657220697320746865207a65726f206160008201527f6464726573730000000000000000000000000000000000000000000000000000602082015250565b7f4552433732313a207472616e736665722066726f6d20696e636f72726563742060008201527f6f776e6572000000000000000000000000000000000000000000000000000000602082015250565b7f4552433732313a20746f6b656e20616c7265616479206d696e74656400000000600082015250565b7f4552433732313a207472616e7366657220746f20746865207a65726f2061646460008201527f7265737300000000000000000000000000000000000000000000000000000000602082015250565b7f4552433732313a20617070726f766520746f2063616c6c657200000000000000600082015250565b7f4552433732313a206f70657261746f7220717565727920666f72206e6f6e657860008201527f697374656e7420746f6b656e0000000000000000000000000000000000000000602082015250565b7f4552433732313a20617070726f76652063616c6c6572206973206e6f74206f7760008201527f6e6572206e6f7220617070726f76656420666f7220616c6c0000000000000000602082015250565b7f4552433732313a2062616c616e636520717565727920666f7220746865207a6560008201527f726f206164647265737300000000000000000000000000000000000000000000602082015250565b7f4552433732313a206f776e657220717565727920666f72206e6f6e657869737460008201527f656e7420746f6b656e0000000000000000000000000000000000000000000000602082015250565b7f45524337323155524953746f726167653a2055524920736574206f66206e6f6e60008201527f6578697374656e7420746f6b656e000000000000000000000000000000000000602082015250565b7f4552433732313a206d696e7420746f20746865207a65726f2061646472657373600082015250565b7f45524337323155524953746f726167653a2055524920717565727920666f722060008201527f6e6f6e6578697374656e7420746f6b656e000000000000000000000000000000602082015250565b7f4552433732313a20617070726f76656420717565727920666f72206e6f6e657860008201527f697374656e7420746f6b656e0000000000000000000000000000000000000000602082015250565b7f4f776e61626c653a2063616c6c6572206973206e6f7420746865206f776e6572600082015250565b7f4552433732314d657461646174613a2055524920717565727920666f72206e6f60008201527f6e6578697374656e7420746f6b656e0000000000000000000000000000000000602082015250565b7f4552433732313a20617070726f76616c20746f2063757272656e74206f776e6560008201527f7200000000000000000000000000000000000000000000000000000000000000602082015250565b7f4552433732313a207472616e736665722063616c6c6572206973206e6f74206f60008201527f776e6572206e6f7220617070726f766564000000000000000000000000000000602082015250565b7f455243373231456e756d657261626c653a20676c6f62616c20696e646578206f60008201527f7574206f6620626f756e64730000000000000000000000000000000000000000602082015250565b613b878161338a565b8114613b9257600080fd5b50565b613b9e8161339c565b8114613ba957600080fd5b50565b613bb5816133a8565b8114613bc057600080fd5b50565b613bcc816133f4565b8114613bd757600080fd5b5056fea264697066735822122097d0a3d28104adeeb024fb02dfc3b5f591425aa6ee76675a779e74da7ca8841264736f6c63430008040033",
  "linkReferences": {},
  "deployedLinkReferences": {}
}