{
  "_format": "hh-sol-artifact-1",
  "contractName": "MyNFT",
  "sourceName": "contracts/MyNFT.sol",
  "abi": [
    {
      "inputs": [],
      "stateMutability": "nonpayable",
      "type": "constructor"
    },
    {
      "anonymous": false,
      "inputs": [
        {
          "indexed": true,
          "internalType": "address",
          "name": "owner",
          "type": "address"
        },
        {
          "indexed": true,
          "internalType": "address",
          "name": "approved",
          "type": "address"
        },
        {
          "indexed": true,
          "internalType": "uint256",
          "name": "tokenId",
          "type": "uint256"
        }
      ],
      "name": "Approval",
      "type": "event"
    },
    {
      "anonymous": false,
      "inputs": [
        {
          "indexed": true,
          "internalType": "address",
          "name": "owner",
          "type": "address"
        },
        {
          "indexed": true,
          "internalType": "address",
          "name": "operator",
          "type": "address"
        },
        {
          "indexed": false,
          "internalType": "bool",
          "name": "approved",
          "type": "bool"
        }
      ],
      "name": "ApprovalForAll",
      "type": "event"
    },
    {
      "anonymous": false,
      "inputs": [
        {
          "indexed": true,
          "internalType": "address",
          "name": "previousOwner",
          "type": "address"
        },
        {
          "indexed": true,
          "internalType": "address",
          "name": "newOwner",
          "type": "address"
        }
      ],
      "name": "OwnershipTransferred",
      "type": "event"
    },
    {
      "anonymous": false,
      "inputs": [
        {
          "indexed": true,
          "internalType": "address",
          "name": "from",
          "type": "address"
        },
        {
          "indexed": true,
          "internalType": "address",
          "name": "to",
          "type": "address"
        },
        {
          "indexed": true,
          "internalType": "uint256",
          "name": "tokenId",
          "type": "uint256"
        }
      ],
      "name": "Transfer",
      "type": "event"
    },
    {
      "inputs": [
        {
          "internalType": "address",
          "name": "to",
          "type": "address"
        },
        {
          "internalType": "uint256",
          "name": "tokenId",
          "type": "uint256"
        }
      ],
      "name": "approve",
      "outputs": [],
      "stateMutability": "nonpayable",
      "type": "function"
    },
    {
      "inputs": [
        {
          "internalType": "address",
          "name": "owner",
          "type": "address"
        }
      ],
      "name": "balanceOf",
      "outputs": [
        {
          "internalType": "uint256",
          "name": "",
          "type": "uint256"
        }
      ],
      "stateMutability": "view",
      "type": "function"
    },
    {
      "inputs": [
        {
          "internalType": "uint256",
          "name": "tokenId",
          "type": "uint256"
        }
      ],
      "name": "getApproved",
      "outputs": [
        {
          "internalType": "address",
          "name": "",
          "type": "address"
        }
      ],
      "stateMutability": "view",
      "type": "function"
    },
    {
      "inputs": [],
      "name": "getNumberOfTokensMinted",
      "outputs": [
        {
          "internalType": "uint256",
          "name": "",
          "type": "uint256"
        }
      ],
      "stateMutability": "view",
      "type": "function"
    },
    {
      "inputs": [
        {
          "internalType": "uint256",
          "name": "_tokenId",
          "type": "uint256"
        }
      ],
      "name": "getTokenExists",
      "outputs": [
        {
          "internalType": "bool",
          "name": "",
          "type": "bool"
        }
      ],
      "stateMutability": "view",
      "type": "function"
    },
    {
      "inputs": [
        {
          "internalType": "address",
          "name": "_owner",
          "type": "address"
        }
      ],
      "name": "getTotalNumberOfTokensOwnedByAnAddress",
      "outputs": [
        {
          "internalType": "uint256",
          "name": "",
          "type": "uint256"
        }
      ],
      "stateMutability": "view",
      "type": "function"
    },
    {
      "inputs": [
        {
          "internalType": "address",
          "name": "owner",
          "type": "address"
        },
        {
          "internalType": "address",
          "name": "operator",
          "type": "address"
        }
      ],
      "name": "isApprovedForAll",
      "outputs": [
        {
          "internalType": "bool",
          "name": "",
          "type": "bool"
        }
      ],
      "stateMutability": "view",
      "type": "function"
    },
    {
      "inputs": [],
      "name": "name",
      "outputs": [
        {
          "internalType": "string",
          "name": "",
          "type": "string"
        }
      ],
      "stateMutability": "view",
      "type": "function"
    },
    {
      "inputs": [],
      "name": "owner",
      "outputs": [
        {
          "internalType": "address",
          "name": "",
          "type": "address"
        }
      ],
      "stateMutability": "view",
      "type": "function"
    },
    {
      "inputs": [
        {
          "internalType": "uint256",
          "name": "tokenId",
          "type": "uint256"
        }
      ],
      "name": "ownerOf",
      "outputs": [
        {
          "internalType": "address",
          "name": "",
          "type": "address"
        }
      ],
      "stateMutability": "view",
      "type": "function"
    },
    {
      "inputs": [],
      "name": "renounceOwnership",
      "outputs": [],
      "stateMutability": "nonpayable",
      "type": "function"
    },
    {
      "inputs": [
        {
          "internalType": "address",
          "name": "to",
          "type": "address"
        },
        {
          "internalType": "string",
          "name": "uri",
          "type": "string"
        }
      ],
      "name": "safeMint",
      "outputs": [],
      "stateMutability": "nonpayable",
      "type": "function"
    },
    {
      "inputs": [
        {
          "internalType": "address",
          "name": "from",
          "type": "address"
        },
        {
          "internalType": "address",
          "name": "to",
          "type": "address"
        },
        {
          "internalType": "uint256",
          "name": "tokenId",
          "type": "uint256"
        }
      ],
      "name": "safeTransferFrom",
      "outputs": [],
      "stateMutability": "nonpayable",
      "type": "function"
    },
    {
      "inputs": [
        {
          "internalType": "address",
          "name": "from",
          "type": "address"
        },
        {
          "internalType": "address",
          "name": "to",
          "type": "address"
        },
        {
          "internalType": "uint256",
          "name": "tokenId",
          "type": "uint256"
        },
        {
          "internalType": "bytes",
          "name": "_data",
          "type": "bytes"
        }
      ],
      "name": "safeTransferFrom",
      "outputs": [],
      "stateMutability": "nonpayable",
      "type": "function"
    },
    {
      "inputs": [
        {
          "internalType": "address",
          "name": "operator",
          "type": "address"
        },
        {
          "internalType": "bool",
          "name": "approved",
          "type": "bool"
        }
      ],
      "name": "setApprovalForAll",
      "outputs": [],
      "stateMutability": "nonpayable",
      "type": "function"
    },
    {
      "inputs": [
        {
          "internalType": "bytes4",
          "name": "interfaceId",
          "type": "bytes4"
        }
      ],
      "name": "supportsInterface",
      "outputs": [
        {
          "internalType": "bool",
          "name": "",
          "type": "bool"
        }
      ],
      "stateMutability": "view",
      "type": "function"
    },
    {
      "inputs": [],
      "name": "symbol",
      "outputs": [
        {
          "internalType": "string",
          "name": "",
          "type": "string"
        }
      ],
      "stateMutability": "view",
      "type": "function"
    },
    {
      "inputs": [
        {
          "internalType": "uint256",
          "name": "index",
          "type": "uint256"
        }
      ],
      "name": "tokenByIndex",
      "outputs": [
        {
          "internalType": "uint256",
          "name": "",
          "type": "uint256"
        }
      ],
      "stateMutability": "view",
      "type": "function"
    },
    {
      "inputs": [
        {
          "internalType": "address",
          "name": "owner",
          "type": "address"
        },
        {
          "internalType": "uint256",
          "name": "index",
          "type": "uint256"
        }
      ],
      "name": "tokenOfOwnerByIndex",
      "outputs": [
        {
          "internalType": "uint256",
          "name": "",
          "type": "uint256"
        }
      ],
      "stateMutability": "view",
      "type": "function"
    },
    {
      "inputs": [
        {
          "internalType": "uint256",
          "name": "tokenId",
          "type": "uint256"
        }
      ],
      "name": "tokenURI",
      "outputs": [
        {
          "internalType": "string",
          "name": "",
          "type": "string"
        }
      ],
      "stateMutability": "view",
      "type": "function"
    },
    {
      "inputs": [],
      "name": "totalSupply",
      "outputs": [
        {
          "internalType": "uint256",
          "name": "",
          "type": "uint256"
        }
      ],
      "stateMutability": "view",
      "type": "function"
    },
    {
      "inputs": [
        {
          "internalType": "address",
          "name": "from",
          "type": "address"
        },
        {
          "internalType": "address",
          "name": "to",
          "type": "address"
        },
        {
          "internalType": "uint256",
          "name": "tokenId",
          "type": "uint256"
        }
      ],
      "name": "transferFrom",
      "outputs": [],
      "stateMutability": "nonpayable",
      "type": "function"
    },
    {
      "inputs": [
        {
          "internalType": "address",
          "name": "newOwner",
          "type": "address"
        }
      ],
      "name": "transferOwnership",
      "outputs": [],
      "stateMutability": "nonpayable",
      "type": "function"
    }
  ],
  "bytecode": "0x60806040523480156200001157600080fd5b506040518060400160405280600581526020017f4d794e46540000000000000000000000000000000000000000000000000000008152506040518060400160405280600481526020017f4d4e465400000000000000000000000000000000000000000000000000000000815250816000908051906020019062000096929190620001a6565b508060019080519060200190620000af929190620001a6565b505050620000d2620000c6620000d860201b60201c565b620000e060201b60201c565b620002bb565b600033905090565b6000600b60009054906101000a900473ffffffffffffffffffffffffffffffffffffffff16905081600b60006101000a81548173ffffffffffffffffffffffffffffffffffffffff021916908373ffffffffffffffffffffffffffffffffffffffff1602179055508173ffffffffffffffffffffffffffffffffffffffff168173ffffffffffffffffffffffffffffffffffffffff167f8be0079c531659141344cd1fd0a4f28419497f9722a3daafe3b4186f6b6457e060405160405180910390a35050565b828054620001b49062000256565b90600052602060002090601f016020900481019282620001d8576000855562000224565b82601f10620001f357805160ff191683800117855562000224565b8280016001018555821562000224579182015b828111156200022357825182559160200191906001019062000206565b5b50905062000233919062000237565b5090565b5b808211156200025257600081600090555060010162000238565b5090565b600060028204905060018216806200026f57607f821691505b602082108114156200028657620002856200028c565b5b50919050565b7f4e487b7100000000000000000000000000000000000000000000000000000000600052602260045260246000fd5b61396e80620002cb6000396000f3fe608060405234801561001057600080fd5b506004361061014d5760003560e01c80636352211e116100c3578063b88d4fde1161007c578063b88d4fde146103c4578063c87b56dd146103e0578063cc151f3a14610410578063d204c45e1461042e578063e985e9c51461044a578063f2fde38b1461047a5761014d565b80636352211e1461030257806370a0823114610332578063715018a6146103625780638da5cb5b1461036c57806395d89b411461038a578063a22cb465146103a85761014d565b806318160ddd1161011557806318160ddd1461021c57806323b872dd1461023a5780632f745c591461025657806342842e0e1461028657806343902850146102a25780634f6ccce7146102d25761014d565b806301ffc9a71461015257806306fdde0314610182578063081812fc146101a0578063095ea7b3146101d0578063142687f3146101ec575b600080fd5b61016c600480360381019061016791906127f9565b610496565b6040516101799190612c8b565b60405180910390f35b61018a6104a8565b6040516101979190612ca6565b60405180910390f35b6101ba60048036038101906101b5919061284b565b61053a565b6040516101c79190612c24565b60405180910390f35b6101ea60048036038101906101e591906127bd565b6105bf565b005b6102066004803603810190610201919061284b565b6106d7565b6040516102139190612c8b565b60405180910390f35b6102246106ee565b6040516102319190612f48565b60405180910390f35b610254600480360381019061024f9190612663565b6106fb565b005b610270600480360381019061026b91906127bd565b61075b565b60405161027d9190612f48565b60405180910390f35b6102a0600480360381019061029b9190612663565b610800565b005b6102bc60048036038101906102b791906125fe565b610820565b6040516102c99190612f48565b60405180910390f35b6102ec60048036038101906102e7919061284b565b610837565b6040516102f99190612f48565b60405180910390f35b61031c6004803603810190610317919061284b565b6108ce565b6040516103299190612c24565b60405180910390f35b61034c600480360381019061034791906125fe565b610980565b6040516103599190612f48565b60405180910390f35b61036a610a38565b005b610374610ac0565b6040516103819190612c24565b60405180910390f35b610392610aea565b60405161039f9190612ca6565b60405180910390f35b6103c260048036038101906103bd919061272d565b610b7c565b005b6103de60048036038101906103d991906126b2565b610b92565b005b6103fa60048036038101906103f5919061284b565b610bf4565b6040516104079190612ca6565b60405180910390f35b610418610c06565b6040516104259190612f48565b60405180910390f35b61044860048036038101906104439190612769565b610c1a565b005b610464600480360381019061045f9190612627565b610cc7565b6040516104719190612c8b565b60405180910390f35b610494600480360381019061048f91906125fe565b610d5b565b005b60006104a182610e53565b9050919050565b6060600080546104b79061319e565b80601f01602080910402602001604051908101604052809291908181526020018280546104e39061319e565b80156105305780601f1061050557610100808354040283529160200191610530565b820191906000526020600020905b81548152906001019060200180831161051357829003601f168201915b5050505050905090565b600061054582610ecd565b610584576040517f08c379a000000000000000000000000000000000000000000000000000000000815260040161057b90612e88565b60405180910390fd5b6004600083815260200190815260200160002060009054906101000a900473ffffffffffffffffffffffffffffffffffffffff169050919050565b60006105ca826108ce565b90508073ffffffffffffffffffffffffffffffffffffffff168373ffffffffffffffffffffffffffffffffffffffff16141561063b576040517f08c379a000000000000000000000000000000000000000000000000000000000815260040161063290612ee8565b60405180910390fd5b8073ffffffffffffffffffffffffffffffffffffffff1661065a610f39565b73ffffffffffffffffffffffffffffffffffffffff161480610689575061068881610683610f39565b610cc7565b5b6106c8576040517f08c379a00000000000000000000000000000000000000000000000000000000081526004016106bf90612dc8565b60405180910390fd5b6106d28383610f41565b505050565b6000806106e383610ecd565b905080915050919050565b6000600880549050905090565b61070c610706610f39565b82610ffa565b61074b576040517f08c379a000000000000000000000000000000000000000000000000000000000815260040161074290612f08565b60405180910390fd5b6107568383836110d8565b505050565b600061076683610980565b82106107a7576040517f08c379a000000000000000000000000000000000000000000000000000000000815260040161079e90612cc8565b60405180910390fd5b600660008473ffffffffffffffffffffffffffffffffffffffff1673ffffffffffffffffffffffffffffffffffffffff168152602001908152602001600020600083815260200190815260200160002054905092915050565b61081b83838360405180602001604052806000815250610b92565b505050565b60008061082c83610980565b905080915050919050565b60006108416106ee565b8210610882576040517f08c379a000000000000000000000000000000000000000000000000000000000815260040161087990612f28565b60405180910390fd5b600882815481106108bc577f4e487b7100000000000000000000000000000000000000000000000000000000600052603260045260246000fd5b90600052602060002001549050919050565b6000806002600084815260200190815260200160002060009054906101000a900473ffffffffffffffffffffffffffffffffffffffff169050600073ffffffffffffffffffffffffffffffffffffffff168173ffffffffffffffffffffffffffffffffffffffff161415610977576040517f08c379a000000000000000000000000000000000000000000000000000000000815260040161096e90612e08565b60405180910390fd5b80915050919050565b60008073ffffffffffffffffffffffffffffffffffffffff168273ffffffffffffffffffffffffffffffffffffffff1614156109f1576040517f08c379a00000000000000000000000000000000000000000000000000000000081526004016109e890612de8565b60405180910390fd5b600360008373ffffffffffffffffffffffffffffffffffffffff1673ffffffffffffffffffffffffffffffffffffffff168152602001908152602001600020549050919050565b610a40610f39565b73ffffffffffffffffffffffffffffffffffffffff16610a5e610ac0565b73ffffffffffffffffffffffffffffffffffffffff1614610ab4576040517f08c379a0000000000000000000000000000000000000000000000000000000008152600401610aab90612ea8565b60405180910390fd5b610abe600061133f565b565b6000600b60009054906101000a900473ffffffffffffffffffffffffffffffffffffffff16905090565b606060018054610af99061319e565b80601f0160208091040260200160405190810160405280929190818152602001828054610b259061319e565b8015610b725780601f10610b4757610100808354040283529160200191610b72565b820191906000526020600020905b815481529060010190602001808311610b5557829003601f168201915b5050505050905090565b610b8e610b87610f39565b8383611405565b5050565b610ba3610b9d610f39565b83610ffa565b610be2576040517f08c379a0000000000000000000000000000000000000000000000000000000008152600401610bd990612f08565b60405180910390fd5b610bee84848484611572565b50505050565b6060610bff826115ce565b9050919050565b600080610c116106ee565b90508091505090565b610c22610f39565b73ffffffffffffffffffffffffffffffffffffffff16610c40610ac0565b73ffffffffffffffffffffffffffffffffffffffff1614610c96576040517f08c379a0000000000000000000000000000000000000000000000000000000008152600401610c8d90612ea8565b60405180910390fd5b6000610ca2600c611720565b9050610cae600c61172e565b610cb88382611744565b610cc28183611762565b505050565b6000600560008473ffffffffffffffffffffffffffffffffffffffff1673ffffffffffffffffffffffffffffffffffffffff16815260200190815260200160002060008373ffffffffffffffffffffffffffffffffffffffff1673ffffffffffffffffffffffffffffffffffffffff16815260200190815260200160002060009054906101000a900460ff16905092915050565b610d63610f39565b73ffffffffffffffffffffffffffffffffffffffff16610d81610ac0565b73ffffffffffffffffffffffffffffffffffffffff1614610dd7576040517f08c379a0000000000000000000000000000000000000000000000000000000008152600401610dce90612ea8565b60405180910390fd5b600073ffffffffffffffffffffffffffffffffffffffff168173ffffffffffffffffffffffffffffffffffffffff161415610e47576040517f08c379a0000000000000000000000000000000000000000000000000000000008152600401610e3e90612d08565b60405180910390fd5b610e508161133f565b50565b60007f780e9d63000000000000000000000000000000000000000000000000000000007bffffffffffffffffffffffffffffffffffffffffffffffffffffffff1916827bffffffffffffffffffffffffffffffffffffffffffffffffffffffff19161480610ec65750610ec5826117d6565b5b9050919050565b60008073ffffffffffffffffffffffffffffffffffffffff166002600084815260200190815260200160002060009054906101000a900473ffffffffffffffffffffffffffffffffffffffff1673ffffffffffffffffffffffffffffffffffffffff1614159050919050565b600033905090565b816004600083815260200190815260200160002060006101000a81548173ffffffffffffffffffffffffffffffffffffffff021916908373ffffffffffffffffffffffffffffffffffffffff160217905550808273ffffffffffffffffffffffffffffffffffffffff16610fb4836108ce565b73ffffffffffffffffffffffffffffffffffffffff167f8c5be1e5ebec7d5bd14f71427d1e84f3dd0314c0f7b2291e5b200ac8c7c3b92560405160405180910390a45050565b600061100582610ecd565b611044576040517f08c379a000000000000000000000000000000000000000000000000000000000815260040161103b90612da8565b60405180910390fd5b600061104f836108ce565b90508073ffffffffffffffffffffffffffffffffffffffff168473ffffffffffffffffffffffffffffffffffffffff16148061109157506110908185610cc7565b5b806110cf57508373ffffffffffffffffffffffffffffffffffffffff166110b78461053a565b73ffffffffffffffffffffffffffffffffffffffff16145b91505092915050565b8273ffffffffffffffffffffffffffffffffffffffff166110f8826108ce565b73ffffffffffffffffffffffffffffffffffffffff161461114e576040517f08c379a000000000000000000000000000000000000000000000000000000000815260040161114590612d28565b60405180910390fd5b600073ffffffffffffffffffffffffffffffffffffffff168273ffffffffffffffffffffffffffffffffffffffff1614156111be576040517f08c379a00000000000000000000000000000000000000000000000000000000081526004016111b590612d68565b60405180910390fd5b6111c98383836118b8565b6111d4600082610f41565b6001600360008573ffffffffffffffffffffffffffffffffffffffff1673ffffffffffffffffffffffffffffffffffffffff168152602001908152602001600020600082825461122491906130b4565b925050819055506001600360008473ffffffffffffffffffffffffffffffffffffffff1673ffffffffffffffffffffffffffffffffffffffff168152602001908152602001600020600082825461127b919061302d565b92505081905550816002600083815260200190815260200160002060006101000a81548173ffffffffffffffffffffffffffffffffffffffff021916908373ffffffffffffffffffffffffffffffffffffffff160217905550808273ffffffffffffffffffffffffffffffffffffffff168473ffffffffffffffffffffffffffffffffffffffff167fddf252ad1be2c89b69c2b068fc378daa952ba7f163c4a11628f55a4df523b3ef60405160405180910390a461133a8383836118c8565b505050565b6000600b60009054906101000a900473ffffffffffffffffffffffffffffffffffffffff16905081600b60006101000a81548173ffffffffffffffffffffffffffffffffffffffff021916908373ffffffffffffffffffffffffffffffffffffffff1602179055508173ffffffffffffffffffffffffffffffffffffffff168173ffffffffffffffffffffffffffffffffffffffff167f8be0079c531659141344cd1fd0a4f28419497f9722a3daafe3b4186f6b6457e060405160405180910390a35050565b8173ffffffffffffffffffffffffffffffffffffffff168373ffffffffffffffffffffffffffffffffffffffff161415611474576040517f08c379a000000000000000000000000000000000000000000000000000000000815260040161146b90612d88565b60405180910390fd5b80600560008573ffffffffffffffffffffffffffffffffffffffff1673ffffffffffffffffffffffffffffffffffffffff16815260200190815260200160002060008473ffffffffffffffffffffffffffffffffffffffff1673ffffffffffffffffffffffffffffffffffffffff16815260200190815260200160002060006101000a81548160ff0219169083151502179055508173ffffffffffffffffffffffffffffffffffffffff168373ffffffffffffffffffffffffffffffffffffffff167f17307eab39ab6107e8899845ad3d59bd9653f200f220920489ca2b5937696c31836040516115659190612c8b565b60405180910390a3505050565b61157d8484846110d8565b611589848484846118cd565b6115c8576040517f08c379a00000000000000000000000000000000000000000000000000000000081526004016115bf90612ce8565b60405180910390fd5b50505050565b60606115d982610ecd565b611618576040517f08c379a000000000000000000000000000000000000000000000000000000000815260040161160f90612e68565b60405180910390fd5b6000600a600084815260200190815260200160002080546116389061319e565b80601f01602080910402602001604051908101604052809291908181526020018280546116649061319e565b80156116b15780601f10611686576101008083540402835291602001916116b1565b820191906000526020600020905b81548152906001019060200180831161169457829003601f168201915b5050505050905060006116c2611a64565b90506000815114156116d857819250505061171b565b60008251111561170d5780826040516020016116f5929190612c00565b6040516020818303038152906040529250505061171b565b61171684611a7b565b925050505b919050565b600081600001549050919050565b6001816000016000828254019250508190555050565b61175e828260405180602001604052806000815250611b22565b5050565b61176b82610ecd565b6117aa576040517f08c379a00000000000000000000000000000000000000000000000000000000081526004016117a190612e28565b60405180910390fd5b80600a600084815260200190815260200160002090805190602001906117d1929190612422565b505050565b60007f80ac58cd000000000000000000000000000000000000000000000000000000007bffffffffffffffffffffffffffffffffffffffffffffffffffffffff1916827bffffffffffffffffffffffffffffffffffffffffffffffffffffffff191614806118a157507f5b5e139f000000000000000000000000000000000000000000000000000000007bffffffffffffffffffffffffffffffffffffffffffffffffffffffff1916827bffffffffffffffffffffffffffffffffffffffffffffffffffffffff1916145b806118b157506118b082611b7d565b5b9050919050565b6118c3838383611be7565b505050565b505050565b60006118ee8473ffffffffffffffffffffffffffffffffffffffff16611cfb565b15611a57578373ffffffffffffffffffffffffffffffffffffffff1663150b7a02611917610f39565b8786866040518563ffffffff1660e01b81526004016119399493929190612c3f565b602060405180830381600087803b15801561195357600080fd5b505af192505050801561198457506040513d601f19601f820116820180604052508101906119819190612822565b60015b611a07573d80600081146119b4576040519150601f19603f3d011682016040523d82523d6000602084013e6119b9565b606091505b506000815114156119ff576040517f08c379a00000000000000000000000000000000000000000000000000000000081526004016119f690612ce8565b60405180910390fd5b805181602001fd5b63150b7a0260e01b7bffffffffffffffffffffffffffffffffffffffffffffffffffffffff1916817bffffffffffffffffffffffffffffffffffffffffffffffffffffffff191614915050611a5c565b600190505b949350505050565b606060405180602001604052806000815250905090565b6060611a8682610ecd565b611ac5576040517f08c379a0000000000000000000000000000000000000000000000000000000008152600401611abc90612ec8565b60405180910390fd5b6000611acf611a64565b90506000815111611aef5760405180602001604052806000815250611b1a565b80611af984611d1e565b604051602001611b0a929190612c00565b6040516020818303038152906040525b915050919050565b611b2c8383611ecb565b611b3960008484846118cd565b611b78576040517f08c379a0000000000000000000000000000000000000000000000000000000008152600401611b6f90612ce8565b60405180910390fd5b505050565b60007f01ffc9a7000000000000000000000000000000000000000000000000000000007bffffffffffffffffffffffffffffffffffffffffffffffffffffffff1916827bffffffffffffffffffffffffffffffffffffffffffffffffffffffff1916149050919050565b611bf28383836120a5565b600073ffffffffffffffffffffffffffffffffffffffff168373ffffffffffffffffffffffffffffffffffffffff161415611c3557611c30816120aa565b611c74565b8173ffffffffffffffffffffffffffffffffffffffff168373ffffffffffffffffffffffffffffffffffffffff1614611c7357611c7283826120f3565b5b5b600073ffffffffffffffffffffffffffffffffffffffff168273ffffffffffffffffffffffffffffffffffffffff161415611cb757611cb281612260565b611cf6565b8273ffffffffffffffffffffffffffffffffffffffff168273ffffffffffffffffffffffffffffffffffffffff1614611cf557611cf482826123a3565b5b5b505050565b6000808273ffffffffffffffffffffffffffffffffffffffff163b119050919050565b60606000821415611d66576040518060400160405280600181526020017f30000000000000000000000000000000000000000000000000000000000000008152509050611ec6565b600082905060005b60008214611d98578080611d8190613201565b915050600a82611d919190613083565b9150611d6e565b60008167ffffffffffffffff811115611dda577f4e487b7100000000000000000000000000000000000000000000000000000000600052604160045260246000fd5b6040519080825280601f01601f191660200182016040528015611e0c5781602001600182028036833780820191505090505b5090505b60008514611ebf57600182611e2591906130b4565b9150600a85611e34919061324a565b6030611e40919061302d565b60f81b818381518110611e7c577f4e487b7100000000000000000000000000000000000000000000000000000000600052603260045260246000fd5b60200101907effffffffffffffffffffffffffffffffffffffffffffffffffffffffffffff1916908160001a905350600a85611eb89190613083565b9450611e10565b8093505050505b919050565b600073ffffffffffffffffffffffffffffffffffffffff168273ffffffffffffffffffffffffffffffffffffffff161415611f3b576040517f08c379a0000000000000000000000000000000000000000000000000000000008152600401611f3290612e48565b60405180910390fd5b611f4481610ecd565b15611f84576040517f08c379a0000000000000000000000000000000000000000000000000000000008152600401611f7b90612d48565b60405180910390fd5b611f90600083836118b8565b6001600360008473ffffffffffffffffffffffffffffffffffffffff1673ffffffffffffffffffffffffffffffffffffffff1681526020019081526020016000206000828254611fe0919061302d565b92505081905550816002600083815260200190815260200160002060006101000a81548173ffffffffffffffffffffffffffffffffffffffff021916908373ffffffffffffffffffffffffffffffffffffffff160217905550808273ffffffffffffffffffffffffffffffffffffffff16600073ffffffffffffffffffffffffffffffffffffffff167fddf252ad1be2c89b69c2b068fc378daa952ba7f163c4a11628f55a4df523b3ef60405160405180910390a46120a1600083836118c8565b5050565b505050565b6008805490506009600083815260200190815260200160002081905550600881908060018154018082558091505060019003906000526020600020016000909190919091505550565b6000600161210084610980565b61210a91906130b4565b90506000600760008481526020019081526020016000205490508181146121ef576000600660008673ffffffffffffffffffffffffffffffffffffffff1673ffffffffffffffffffffffffffffffffffffffff168152602001908152602001600020600084815260200190815260200160002054905080600660008773ffffffffffffffffffffffffffffffffffffffff1673ffffffffffffffffffffffffffffffffffffffff168152602001908152602001600020600084815260200190815260200160002081905550816007600083815260200190815260200160002081905550505b6007600084815260200190815260200160002060009055600660008573ffffffffffffffffffffffffffffffffffffffff1673ffffffffffffffffffffffffffffffffffffffff16815260200190815260200160002060008381526020019081526020016000206000905550505050565b6000600160088054905061227491906130b4565b90506000600960008481526020019081526020016000205490506000600883815481106122ca577f4e487b7100000000000000000000000000000000000000000000000000000000600052603260045260246000fd5b906000526020600020015490508060088381548110612312577f4e487b7100000000000000000000000000000000000000000000000000000000600052603260045260246000fd5b906000526020600020018190555081600960008381526020019081526020016000208190555060096000858152602001908152602001600020600090556008805480612387577f4e487b7100000000000000000000000000000000000000000000000000000000600052603160045260246000fd5b6001900381819060005260206000200160009055905550505050565b60006123ae83610980565b905081600660008573ffffffffffffffffffffffffffffffffffffffff1673ffffffffffffffffffffffffffffffffffffffff168152602001908152602001600020600083815260200190815260200160002081905550806007600084815260200190815260200160002081905550505050565b82805461242e9061319e565b90600052602060002090601f0160209004810192826124505760008555612497565b82601f1061246957805160ff1916838001178555612497565b82800160010185558215612497579182015b8281111561249657825182559160200191906001019061247b565b5b5090506124a491906124a8565b5090565b5b808211156124c15760008160009055506001016124a9565b5090565b60006124d86124d384612f88565b612f63565b9050828152602081018484840111156124f057600080fd5b6124fb84828561315c565b509392505050565b600061251661251184612fb9565b612f63565b90508281526020810184848401111561252e57600080fd5b61253984828561315c565b509392505050565b600081359050612550816138dc565b92915050565b600081359050612565816138f3565b92915050565b60008135905061257a8161390a565b92915050565b60008151905061258f8161390a565b92915050565b600082601f8301126125a657600080fd5b81356125b68482602086016124c5565b91505092915050565b600082601f8301126125d057600080fd5b81356125e0848260208601612503565b91505092915050565b6000813590506125f881613921565b92915050565b60006020828403121561261057600080fd5b600061261e84828501612541565b91505092915050565b6000806040838503121561263a57600080fd5b600061264885828601612541565b925050602061265985828601612541565b9150509250929050565b60008060006060848603121561267857600080fd5b600061268686828701612541565b935050602061269786828701612541565b92505060406126a8868287016125e9565b9150509250925092565b600080600080608085870312156126c857600080fd5b60006126d687828801612541565b94505060206126e787828801612541565b93505060406126f8878288016125e9565b925050606085013567ffffffffffffffff81111561271557600080fd5b61272187828801612595565b91505092959194509250565b6000806040838503121561274057600080fd5b600061274e85828601612541565b925050602061275f85828601612556565b9150509250929050565b6000806040838503121561277c57600080fd5b600061278a85828601612541565b925050602083013567ffffffffffffffff8111156127a757600080fd5b6127b3858286016125bf565b9150509250929050565b600080604083850312156127d057600080fd5b60006127de85828601612541565b92505060206127ef858286016125e9565b9150509250929050565b60006020828403121561280b57600080fd5b60006128198482850161256b565b91505092915050565b60006020828403121561283457600080fd5b600061284284828501612580565b91505092915050565b60006020828403121561285d57600080fd5b600061286b848285016125e9565b91505092915050565b61287d816130e8565b82525050565b61288c816130fa565b82525050565b600061289d82612fea565b6128a78185613000565b93506128b781856020860161316b565b6128c081613337565b840191505092915050565b60006128d682612ff5565b6128e08185613011565b93506128f081856020860161316b565b6128f981613337565b840191505092915050565b600061290f82612ff5565b6129198185613022565b935061292981856020860161316b565b80840191505092915050565b6000612942602b83613011565b915061294d82613348565b604082019050919050565b6000612965603283613011565b915061297082613397565b604082019050919050565b6000612988602683613011565b9150612993826133e6565b604082019050919050565b60006129ab602583613011565b91506129b682613435565b604082019050919050565b60006129ce601c83613011565b91506129d982613484565b602082019050919050565b60006129f1602483613011565b91506129fc826134ad565b604082019050919050565b6000612a14601983613011565b9150612a1f826134fc565b602082019050919050565b6000612a37602c83613011565b9150612a4282613525565b604082019050919050565b6000612a5a603883613011565b9150612a6582613574565b604082019050919050565b6000612a7d602a83613011565b9150612a88826135c3565b604082019050919050565b6000612aa0602983613011565b9150612aab82613612565b604082019050919050565b6000612ac3602e83613011565b9150612ace82613661565b604082019050919050565b6000612ae6602083613011565b9150612af1826136b0565b602082019050919050565b6000612b09603183613011565b9150612b14826136d9565b604082019050919050565b6000612b2c602c83613011565b9150612b3782613728565b604082019050919050565b6000612b4f602083613011565b9150612b5a82613777565b602082019050919050565b6000612b72602f83613011565b9150612b7d826137a0565b604082019050919050565b6000612b95602183613011565b9150612ba0826137ef565b604082019050919050565b6000612bb8603183613011565b9150612bc38261383e565b604082019050919050565b6000612bdb602c83613011565b9150612be68261388d565b604082019050919050565b612bfa81613152565b82525050565b6000612c0c8285612904565b9150612c188284612904565b91508190509392505050565b6000602082019050612c396000830184612874565b92915050565b6000608082019050612c546000830187612874565b612c616020830186612874565b612c6e6040830185612bf1565b8181036060830152612c808184612892565b905095945050505050565b6000602082019050612ca06000830184612883565b92915050565b60006020820190508181036000830152612cc081846128cb565b905092915050565b60006020820190508181036000830152612ce181612935565b9050919050565b60006020820190508181036000830152612d0181612958565b9050919050565b60006020820190508181036000830152612d218161297b565b9050919050565b60006020820190508181036000830152612d418161299e565b9050919050565b60006020820190508181036000830152612d61816129c1565b9050919050565b60006020820190508181036000830152612d81816129e4565b9050919050565b60006020820190508181036000830152612da181612a07565b9050919050565b60006020820190508181036000830152612dc181612a2a565b9050919050565b60006020820190508181036000830152612de181612a4d565b9050919050565b60006020820190508181036000830152612e0181612a70565b9050919050565b60006020820190508181036000830152612e2181612a93565b9050919050565b60006020820190508181036000830152612e4181612ab6565b9050919050565b60006020820190508181036000830152612e6181612ad9565b9050919050565b60006020820190508181036000830152612e8181612afc565b9050919050565b60006020820190508181036000830152612ea181612b1f565b9050919050565b60006020820190508181036000830152612ec181612b42565b9050919050565b60006020820190508181036000830152612ee181612b65565b9050919050565b60006020820190508181036000830152612f0181612b88565b9050919050565b60006020820190508181036000830152612f2181612bab565b9050919050565b60006020820190508181036000830152612f4181612bce565b9050919050565b6000602082019050612f5d6000830184612bf1565b92915050565b6000612f6d612f7e565b9050612f7982826131d0565b919050565b6000604051905090565b600067ffffffffffffffff821115612fa357612fa2613308565b5b612fac82613337565b9050602081019050919050565b600067ffffffffffffffff821115612fd457612fd3613308565b5b612fdd82613337565b9050602081019050919050565b600081519050919050565b600081519050919050565b600082825260208201905092915050565b600082825260208201905092915050565b600081905092915050565b600061303882613152565b915061304383613152565b9250827fffffffffffffffffffffffffffffffffffffffffffffffffffffffffffffffff038211156130785761307761327b565b5b828201905092915050565b600061308e82613152565b915061309983613152565b9250826130a9576130a86132aa565b5b828204905092915050565b60006130bf82613152565b91506130ca83613152565b9250828210156130dd576130dc61327b565b5b828203905092915050565b60006130f382613132565b9050919050565b60008115159050919050565b60007fffffffff0000000000000000000000000000000000000000000000000000000082169050919050565b600073ffffffffffffffffffffffffffffffffffffffff82169050919050565b6000819050919050565b82818337600083830152505050565b60005b8381101561318957808201518184015260208101905061316e565b83811115613198576000848401525b50505050565b600060028204905060018216806131b657607f821691505b602082108114156131ca576131c96132d9565b5b50919050565b6131d982613337565b810181811067ffffffffffffffff821117156131f8576131f7613308565b5b80604052505050565b600061320c82613152565b91507fffffffffffffffffffffffffffffffffffffffffffffffffffffffffffffffff82141561323f5761323e61327b565b5b600182019050919050565b600061325582613152565b915061326083613152565b9250826132705761326f6132aa565b5b828206905092915050565b7f4e487b7100000000000000000000000000000000000000000000000000000000600052601160045260246000fd5b7f4e487b7100000000000000000000000000000000000000000000000000000000600052601260045260246000fd5b7f4e487b7100000000000000000000000000000000000000000000000000000000600052602260045260246000fd5b7f4e487b7100000000000000000000000000000000000000000000000000000000600052604160045260246000fd5b6000601f19601f8301169050919050565b7f455243373231456e756d657261626c653a206f776e657220696e646578206f7560008201527f74206f6620626f756e6473000000000000000000000000000000000000000000602082015250565b7f4552433732313a207472616e7366657220746f206e6f6e20455243373231526560008201527f63656976657220696d706c656d656e7465720000000000000000000000000000602082015250565b7f4f776e61626c653a206e6577206f776e657220697320746865207a65726f206160008201527f6464726573730000000000000000000000000000000000000000000000000000602082015250565b7f4552433732313a207472616e736665722066726f6d20696e636f72726563742060008201527f6f776e6572000000000000000000000000000000000000000000000000000000602082015250565b7f4552433732313a20746f6b656e20616c7265616479206d696e74656400000000600082015250565b7f4552433732313a207472616e7366657220746f20746865207a65726f2061646460008201527f7265737300000000000000000000000000000000000000000000000000000000602082015250565b7f4552433732313a20617070726f766520746f2063616c6c657200000000000000600082015250565b7f4552433732313a206f70657261746f7220717565727920666f72206e6f6e657860008201527f697374656e7420746f6b656e0000000000000000000000000000000000000000602082015250565b7f4552433732313a20617070726f76652063616c6c6572206973206e6f74206f7760008201527f6e6572206e6f7220617070726f76656420666f7220616c6c0000000000000000602082015250565b7f4552433732313a2062616c616e636520717565727920666f7220746865207a6560008201527f726f206164647265737300000000000000000000000000000000000000000000602082015250565b7f4552433732313a206f776e657220717565727920666f72206e6f6e657869737460008201527f656e7420746f6b656e0000000000000000000000000000000000000000000000602082015250565b7f45524337323155524953746f726167653a2055524920736574206f66206e6f6e60008201527f6578697374656e7420746f6b656e000000000000000000000000000000000000602082015250565b7f4552433732313a206d696e7420746f20746865207a65726f2061646472657373600082015250565b7f45524337323155524953746f726167653a2055524920717565727920666f722060008201527f6e6f6e6578697374656e7420746f6b656e000000000000000000000000000000602082015250565b7f4552433732313a20617070726f76656420717565727920666f72206e6f6e657860008201527f697374656e7420746f6b656e0000000000000000000000000000000000000000602082015250565b7f4f776e61626c653a2063616c6c6572206973206e6f7420746865206f776e6572600082015250565b7f4552433732314d657461646174613a2055524920717565727920666f72206e6f60008201527f6e6578697374656e7420746f6b656e0000000000000000000000000000000000602082015250565b7f4552433732313a20617070726f76616c20746f2063757272656e74206f776e6560008201527f7200000000000000000000000000000000000000000000000000000000000000602082015250565b7f4552433732313a207472616e736665722063616c6c6572206973206e6f74206f60008201527f776e6572206e6f7220617070726f766564000000000000000000000000000000602082015250565b7f455243373231456e756d657261626c653a20676c6f62616c20696e646578206f60008201527f7574206f6620626f756e64730000000000000000000000000000000000000000602082015250565b6138e5816130e8565b81146138f057600080fd5b50565b6138fc816130fa565b811461390757600080fd5b50565b61391381613106565b811461391e57600080fd5b50565b61392a81613152565b811461393557600080fd5b5056fea2646970667358221220f0b2230eff01d35bd90dcd2a7c994c96c0422eab5e5d5f655f3620e969331bdc64736f6c63430008040033",
  "linkReferences": {},
  "deployedLinkReferences": {}
}