{
  "_format": "hh-sol-artifact-1",
  "contractName": "MyNFT",
  "sourceName": "contracts/MyNFT.sol",
  "abi": [
    {
      "inputs": [],
      "stateMutability": "nonpayable",
      "type": "constructor"
    },
    {
      "anonymous": false,
      "inputs": [
        {
          "indexed": true,
          "internalType": "address",
          "name": "owner",
          "type": "address"
        },
        {
          "indexed": true,
          "internalType": "address",
          "name": "approved",
          "type": "address"
        },
        {
          "indexed": true,
          "internalType": "uint256",
          "name": "tokenId",
          "type": "uint256"
        }
      ],
      "name": "Approval",
      "type": "event"
    },
    {
      "anonymous": false,
      "inputs": [
        {
          "indexed": true,
          "internalType": "address",
          "name": "owner",
          "type": "address"
        },
        {
          "indexed": true,
          "internalType": "address",
          "name": "operator",
          "type": "address"
        },
        {
          "indexed": false,
          "internalType": "bool",
          "name": "approved",
          "type": "bool"
        }
      ],
      "name": "ApprovalForAll",
      "type": "event"
    },
    {
      "anonymous": false,
      "inputs": [
        {
          "indexed": true,
          "internalType": "address",
          "name": "previousOwner",
          "type": "address"
        },
        {
          "indexed": true,
          "internalType": "address",
          "name": "newOwner",
          "type": "address"
        }
      ],
      "name": "OwnershipTransferred",
      "type": "event"
    },
    {
      "anonymous": false,
      "inputs": [
        {
          "indexed": true,
          "internalType": "address",
          "name": "from",
          "type": "address"
        },
        {
          "indexed": true,
          "internalType": "address",
          "name": "to",
          "type": "address"
        },
        {
          "indexed": true,
          "internalType": "uint256",
          "name": "tokenId",
          "type": "uint256"
        }
      ],
      "name": "Transfer",
      "type": "event"
    },
    {
      "inputs": [
        {
          "internalType": "address",
          "name": "to",
          "type": "address"
        },
        {
          "internalType": "uint256",
          "name": "tokenId",
          "type": "uint256"
        }
      ],
      "name": "approve",
      "outputs": [],
      "stateMutability": "nonpayable",
      "type": "function"
    },
    {
      "inputs": [
        {
          "internalType": "address",
          "name": "owner",
          "type": "address"
        }
      ],
      "name": "balanceOf",
      "outputs": [
        {
          "internalType": "uint256",
          "name": "",
          "type": "uint256"
        }
      ],
      "stateMutability": "view",
      "type": "function"
    },
    {
      "inputs": [
        {
          "internalType": "uint256",
          "name": "tokenId",
          "type": "uint256"
        }
      ],
      "name": "getApproved",
      "outputs": [
        {
          "internalType": "address",
          "name": "",
          "type": "address"
        }
      ],
      "stateMutability": "view",
      "type": "function"
    },
    {
      "inputs": [
        {
          "internalType": "uint256",
          "name": "_tokenId",
          "type": "uint256"
        }
      ],
      "name": "getDocumentExists",
      "outputs": [
        {
          "internalType": "bool",
          "name": "",
          "type": "bool"
        }
      ],
      "stateMutability": "view",
      "type": "function"
    },
    {
      "inputs": [],
      "name": "getNumberOfDocumentsMinted",
      "outputs": [
        {
          "internalType": "uint256",
          "name": "",
          "type": "uint256"
        }
      ],
      "stateMutability": "view",
      "type": "function"
    },
    {
      "inputs": [
        {
          "internalType": "address",
          "name": "_owner",
          "type": "address"
        }
      ],
      "name": "getTotalNumberOfDocumentsByAnAddress",
      "outputs": [
        {
          "internalType": "uint256",
          "name": "",
          "type": "uint256"
        }
      ],
      "stateMutability": "view",
      "type": "function"
    },
    {
      "inputs": [
        {
          "internalType": "address",
          "name": "owner",
          "type": "address"
        },
        {
          "internalType": "address",
          "name": "operator",
          "type": "address"
        }
      ],
      "name": "isApprovedForAll",
      "outputs": [
        {
          "internalType": "bool",
          "name": "",
          "type": "bool"
        }
      ],
      "stateMutability": "view",
      "type": "function"
    },
    {
      "inputs": [],
      "name": "name",
      "outputs": [
        {
          "internalType": "string",
          "name": "",
          "type": "string"
        }
      ],
      "stateMutability": "view",
      "type": "function"
    },
    {
      "inputs": [],
      "name": "owner",
      "outputs": [
        {
          "internalType": "address",
          "name": "",
          "type": "address"
        }
      ],
      "stateMutability": "view",
      "type": "function"
    },
    {
      "inputs": [
        {
          "internalType": "uint256",
          "name": "tokenId",
          "type": "uint256"
        }
      ],
      "name": "ownerOf",
      "outputs": [
        {
          "internalType": "address",
          "name": "",
          "type": "address"
        }
      ],
      "stateMutability": "view",
      "type": "function"
    },
    {
      "inputs": [],
      "name": "renounceOwnership",
      "outputs": [],
      "stateMutability": "nonpayable",
      "type": "function"
    },
    {
      "inputs": [
        {
          "internalType": "address",
          "name": "to",
          "type": "address"
        },
        {
          "internalType": "string",
          "name": "uri",
          "type": "string"
        }
      ],
      "name": "safeMint",
      "outputs": [],
      "stateMutability": "nonpayable",
      "type": "function"
    },
    {
      "inputs": [
        {
          "internalType": "address",
          "name": "from",
          "type": "address"
        },
        {
          "internalType": "address",
          "name": "to",
          "type": "address"
        },
        {
          "internalType": "uint256",
          "name": "tokenId",
          "type": "uint256"
        }
      ],
      "name": "safeTransferFrom",
      "outputs": [],
      "stateMutability": "nonpayable",
      "type": "function"
    },
    {
      "inputs": [
        {
          "internalType": "address",
          "name": "from",
          "type": "address"
        },
        {
          "internalType": "address",
          "name": "to",
          "type": "address"
        },
        {
          "internalType": "uint256",
          "name": "tokenId",
          "type": "uint256"
        },
        {
          "internalType": "bytes",
          "name": "_data",
          "type": "bytes"
        }
      ],
      "name": "safeTransferFrom",
      "outputs": [],
      "stateMutability": "nonpayable",
      "type": "function"
    },
    {
      "inputs": [
        {
          "internalType": "address",
          "name": "operator",
          "type": "address"
        },
        {
          "internalType": "bool",
          "name": "approved",
          "type": "bool"
        }
      ],
      "name": "setApprovalForAll",
      "outputs": [],
      "stateMutability": "nonpayable",
      "type": "function"
    },
    {
      "inputs": [
        {
          "internalType": "bytes4",
          "name": "interfaceId",
          "type": "bytes4"
        }
      ],
      "name": "supportsInterface",
      "outputs": [
        {
          "internalType": "bool",
          "name": "",
          "type": "bool"
        }
      ],
      "stateMutability": "view",
      "type": "function"
    },
    {
      "inputs": [],
      "name": "symbol",
      "outputs": [
        {
          "internalType": "string",
          "name": "",
          "type": "string"
        }
      ],
      "stateMutability": "view",
      "type": "function"
    },
    {
      "inputs": [
        {
          "internalType": "uint256",
          "name": "index",
          "type": "uint256"
        }
      ],
      "name": "tokenByIndex",
      "outputs": [
        {
          "internalType": "uint256",
          "name": "",
          "type": "uint256"
        }
      ],
      "stateMutability": "view",
      "type": "function"
    },
    {
      "inputs": [
        {
          "internalType": "address",
          "name": "owner",
          "type": "address"
        },
        {
          "internalType": "uint256",
          "name": "index",
          "type": "uint256"
        }
      ],
      "name": "tokenOfOwnerByIndex",
      "outputs": [
        {
          "internalType": "uint256",
          "name": "",
          "type": "uint256"
        }
      ],
      "stateMutability": "view",
      "type": "function"
    },
    {
      "inputs": [
        {
          "internalType": "uint256",
          "name": "tokenId",
          "type": "uint256"
        }
      ],
      "name": "tokenURI",
      "outputs": [
        {
          "internalType": "string",
          "name": "",
          "type": "string"
        }
      ],
      "stateMutability": "view",
      "type": "function"
    },
    {
      "inputs": [],
      "name": "totalSupply",
      "outputs": [
        {
          "internalType": "uint256",
          "name": "",
          "type": "uint256"
        }
      ],
      "stateMutability": "view",
      "type": "function"
    },
    {
      "inputs": [
        {
          "internalType": "address",
          "name": "from",
          "type": "address"
        },
        {
          "internalType": "address",
          "name": "to",
          "type": "address"
        },
        {
          "internalType": "uint256",
          "name": "tokenId",
          "type": "uint256"
        }
      ],
      "name": "transferFrom",
      "outputs": [],
      "stateMutability": "nonpayable",
      "type": "function"
    },
    {
      "inputs": [
        {
          "internalType": "address",
          "name": "from",
          "type": "address"
        },
        {
          "internalType": "address",
          "name": "to",
          "type": "address"
        },
        {
          "internalType": "uint256",
          "name": "tokenId",
          "type": "uint256"
        }
      ],
      "name": "transferNFT",
      "outputs": [],
      "stateMutability": "nonpayable",
      "type": "function"
    },
    {
      "inputs": [
        {
          "internalType": "address",
          "name": "newOwner",
          "type": "address"
        }
      ],
      "name": "transferOwnership",
      "outputs": [],
      "stateMutability": "nonpayable",
      "type": "function"
    }
  ],
  "bytecode": "0x60806040523480156200001157600080fd5b506040518060400160405280600681526020017f446f634e465400000000000000000000000000000000000000000000000000008152506040518060400160405280600481526020017f444e465400000000000000000000000000000000000000000000000000000000815250816000908051906020019062000096929190620001a6565b508060019080519060200190620000af929190620001a6565b505050620000d2620000c6620000d860201b60201c565b620000e060201b60201c565b620002bb565b600033905090565b6000600b60009054906101000a900473ffffffffffffffffffffffffffffffffffffffff16905081600b60006101000a81548173ffffffffffffffffffffffffffffffffffffffff021916908373ffffffffffffffffffffffffffffffffffffffff1602179055508173ffffffffffffffffffffffffffffffffffffffff168173ffffffffffffffffffffffffffffffffffffffff167f8be0079c531659141344cd1fd0a4f28419497f9722a3daafe3b4186f6b6457e060405160405180910390a35050565b828054620001b49062000256565b90600052602060002090601f016020900481019282620001d8576000855562000224565b82601f10620001f357805160ff191683800117855562000224565b8280016001018555821562000224579182015b828111156200022357825182559160200191906001019062000206565b5b50905062000233919062000237565b5090565b5b808211156200025257600081600090555060010162000238565b5090565b600060028204905060018216806200026f57607f821691505b602082108114156200028657620002856200028c565b5b50919050565b7f4e487b7100000000000000000000000000000000000000000000000000000000600052602260045260246000fd5b6139a580620002cb6000396000f3fe608060405234801561001057600080fd5b50600436106101585760003560e01c806370a08231116100c3578063b7fd385c1161007c578063b7fd385c146103d9578063b88d4fde14610409578063c87b56dd14610425578063d204c45e14610455578063e985e9c514610471578063f2fde38b146104a157610158565b806370a0823114610329578063715018a614610359578063869000c1146103635780638da5cb5b1461038157806395d89b411461039f578063a22cb465146103bd57610158565b80632f745c59116101155780632f745c591461023157806342842e0e146102615780634f6ccce71461027d5780636352211e146102ad57806369e9cae1146102dd5780636e10b619146102f957610158565b806301ffc9a71461015d57806306fdde031461018d578063081812fc146101ab578063095ea7b3146101db57806318160ddd146101f757806323b872dd14610215575b600080fd5b61017760048036038101906101729190612830565b6104bd565b6040516101849190612cc2565b60405180910390f35b6101956104cf565b6040516101a29190612cdd565b60405180910390f35b6101c560048036038101906101c09190612882565b610561565b6040516101d29190612c5b565b60405180910390f35b6101f560048036038101906101f091906127f4565b6105e6565b005b6101ff6106fe565b60405161020c9190612f7f565b60405180910390f35b61022f600480360381019061022a919061269a565b61070b565b005b61024b600480360381019061024691906127f4565b61076b565b6040516102589190612f7f565b60405180910390f35b61027b6004803603810190610276919061269a565b610810565b005b61029760048036038101906102929190612882565b610830565b6040516102a49190612f7f565b60405180910390f35b6102c760048036038101906102c29190612882565b6108c7565b6040516102d49190612c5b565b60405180910390f35b6102f760048036038101906102f2919061269a565b610979565b005b610313600480360381019061030e9190612635565b610989565b6040516103209190612f7f565b60405180910390f35b610343600480360381019061033e9190612635565b6109a0565b6040516103509190612f7f565b60405180910390f35b610361610a58565b005b61036b610ae0565b6040516103789190612f7f565b60405180910390f35b610389610af4565b6040516103969190612c5b565b60405180910390f35b6103a7610b1e565b6040516103b49190612cdd565b60405180910390f35b6103d760048036038101906103d29190612764565b610bb0565b005b6103f360048036038101906103ee9190612882565b610bc6565b6040516104009190612cc2565b60405180910390f35b610423600480360381019061041e91906126e9565b610bdd565b005b61043f600480360381019061043a9190612882565b610c3f565b60405161044c9190612cdd565b60405180910390f35b61046f600480360381019061046a91906127a0565b610c51565b005b61048b6004803603810190610486919061265e565b610cfe565b6040516104989190612cc2565b60405180910390f35b6104bb60048036038101906104b69190612635565b610d92565b005b60006104c882610e8a565b9050919050565b6060600080546104de906131d5565b80601f016020809104026020016040519081016040528092919081815260200182805461050a906131d5565b80156105575780601f1061052c57610100808354040283529160200191610557565b820191906000526020600020905b81548152906001019060200180831161053a57829003601f168201915b5050505050905090565b600061056c82610f04565b6105ab576040517f08c379a00000000000000000000000000000000000000000000000000000000081526004016105a290612ebf565b60405180910390fd5b6004600083815260200190815260200160002060009054906101000a900473ffffffffffffffffffffffffffffffffffffffff169050919050565b60006105f1826108c7565b90508073ffffffffffffffffffffffffffffffffffffffff168373ffffffffffffffffffffffffffffffffffffffff161415610662576040517f08c379a000000000000000000000000000000000000000000000000000000000815260040161065990612f1f565b60405180910390fd5b8073ffffffffffffffffffffffffffffffffffffffff16610681610f70565b73ffffffffffffffffffffffffffffffffffffffff1614806106b057506106af816106aa610f70565b610cfe565b5b6106ef576040517f08c379a00000000000000000000000000000000000000000000000000000000081526004016106e690612dff565b60405180910390fd5b6106f98383610f78565b505050565b6000600880549050905090565b61071c610716610f70565b82611031565b61075b576040517f08c379a000000000000000000000000000000000000000000000000000000000815260040161075290612f3f565b60405180910390fd5b61076683838361110f565b505050565b6000610776836109a0565b82106107b7576040517f08c379a00000000000000000000000000000000000000000000000000000000081526004016107ae90612cff565b60405180910390fd5b600660008473ffffffffffffffffffffffffffffffffffffffff1673ffffffffffffffffffffffffffffffffffffffff168152602001908152602001600020600083815260200190815260200160002054905092915050565b61082b83838360405180602001604052806000815250610bdd565b505050565b600061083a6106fe565b821061087b576040517f08c379a000000000000000000000000000000000000000000000000000000000815260040161087290612f5f565b60405180910390fd5b600882815481106108b5577f4e487b7100000000000000000000000000000000000000000000000000000000600052603260045260246000fd5b90600052602060002001549050919050565b6000806002600084815260200190815260200160002060009054906101000a900473ffffffffffffffffffffffffffffffffffffffff169050600073ffffffffffffffffffffffffffffffffffffffff168173ffffffffffffffffffffffffffffffffffffffff161415610970576040517f08c379a000000000000000000000000000000000000000000000000000000000815260040161096790612e3f565b60405180910390fd5b80915050919050565b61098483838361110f565b505050565b600080610995836109a0565b905080915050919050565b60008073ffffffffffffffffffffffffffffffffffffffff168273ffffffffffffffffffffffffffffffffffffffff161415610a11576040517f08c379a0000000000000000000000000000000000000000000000000000000008152600401610a0890612e1f565b60405180910390fd5b600360008373ffffffffffffffffffffffffffffffffffffffff1673ffffffffffffffffffffffffffffffffffffffff168152602001908152602001600020549050919050565b610a60610f70565b73ffffffffffffffffffffffffffffffffffffffff16610a7e610af4565b73ffffffffffffffffffffffffffffffffffffffff1614610ad4576040517f08c379a0000000000000000000000000000000000000000000000000000000008152600401610acb90612edf565b60405180910390fd5b610ade6000611376565b565b600080610aeb6106fe565b90508091505090565b6000600b60009054906101000a900473ffffffffffffffffffffffffffffffffffffffff16905090565b606060018054610b2d906131d5565b80601f0160208091040260200160405190810160405280929190818152602001828054610b59906131d5565b8015610ba65780601f10610b7b57610100808354040283529160200191610ba6565b820191906000526020600020905b815481529060010190602001808311610b8957829003601f168201915b5050505050905090565b610bc2610bbb610f70565b838361143c565b5050565b600080610bd283610f04565b905080915050919050565b610bee610be8610f70565b83611031565b610c2d576040517f08c379a0000000000000000000000000000000000000000000000000000000008152600401610c2490612f3f565b60405180910390fd5b610c39848484846115a9565b50505050565b6060610c4a82611605565b9050919050565b610c59610f70565b73ffffffffffffffffffffffffffffffffffffffff16610c77610af4565b73ffffffffffffffffffffffffffffffffffffffff1614610ccd576040517f08c379a0000000000000000000000000000000000000000000000000000000008152600401610cc490612edf565b60405180910390fd5b6000610cd9600c611757565b9050610ce5600c611765565b610cef838261177b565b610cf98183611799565b505050565b6000600560008473ffffffffffffffffffffffffffffffffffffffff1673ffffffffffffffffffffffffffffffffffffffff16815260200190815260200160002060008373ffffffffffffffffffffffffffffffffffffffff1673ffffffffffffffffffffffffffffffffffffffff16815260200190815260200160002060009054906101000a900460ff16905092915050565b610d9a610f70565b73ffffffffffffffffffffffffffffffffffffffff16610db8610af4565b73ffffffffffffffffffffffffffffffffffffffff1614610e0e576040517f08c379a0000000000000000000000000000000000000000000000000000000008152600401610e0590612edf565b60405180910390fd5b600073ffffffffffffffffffffffffffffffffffffffff168173ffffffffffffffffffffffffffffffffffffffff161415610e7e576040517f08c379a0000000000000000000000000000000000000000000000000000000008152600401610e7590612d3f565b60405180910390fd5b610e8781611376565b50565b60007f780e9d63000000000000000000000000000000000000000000000000000000007bffffffffffffffffffffffffffffffffffffffffffffffffffffffff1916827bffffffffffffffffffffffffffffffffffffffffffffffffffffffff19161480610efd5750610efc8261180d565b5b9050919050565b60008073ffffffffffffffffffffffffffffffffffffffff166002600084815260200190815260200160002060009054906101000a900473ffffffffffffffffffffffffffffffffffffffff1673ffffffffffffffffffffffffffffffffffffffff1614159050919050565b600033905090565b816004600083815260200190815260200160002060006101000a81548173ffffffffffffffffffffffffffffffffffffffff021916908373ffffffffffffffffffffffffffffffffffffffff160217905550808273ffffffffffffffffffffffffffffffffffffffff16610feb836108c7565b73ffffffffffffffffffffffffffffffffffffffff167f8c5be1e5ebec7d5bd14f71427d1e84f3dd0314c0f7b2291e5b200ac8c7c3b92560405160405180910390a45050565b600061103c82610f04565b61107b576040517f08c379a000000000000000000000000000000000000000000000000000000000815260040161107290612ddf565b60405180910390fd5b6000611086836108c7565b90508073ffffffffffffffffffffffffffffffffffffffff168473ffffffffffffffffffffffffffffffffffffffff1614806110c857506110c78185610cfe565b5b8061110657508373ffffffffffffffffffffffffffffffffffffffff166110ee84610561565b73ffffffffffffffffffffffffffffffffffffffff16145b91505092915050565b8273ffffffffffffffffffffffffffffffffffffffff1661112f826108c7565b73ffffffffffffffffffffffffffffffffffffffff1614611185576040517f08c379a000000000000000000000000000000000000000000000000000000000815260040161117c90612d5f565b60405180910390fd5b600073ffffffffffffffffffffffffffffffffffffffff168273ffffffffffffffffffffffffffffffffffffffff1614156111f5576040517f08c379a00000000000000000000000000000000000000000000000000000000081526004016111ec90612d9f565b60405180910390fd5b6112008383836118ef565b61120b600082610f78565b6001600360008573ffffffffffffffffffffffffffffffffffffffff1673ffffffffffffffffffffffffffffffffffffffff168152602001908152602001600020600082825461125b91906130eb565b925050819055506001600360008473ffffffffffffffffffffffffffffffffffffffff1673ffffffffffffffffffffffffffffffffffffffff16815260200190815260200160002060008282546112b29190613064565b92505081905550816002600083815260200190815260200160002060006101000a81548173ffffffffffffffffffffffffffffffffffffffff021916908373ffffffffffffffffffffffffffffffffffffffff160217905550808273ffffffffffffffffffffffffffffffffffffffff168473ffffffffffffffffffffffffffffffffffffffff167fddf252ad1be2c89b69c2b068fc378daa952ba7f163c4a11628f55a4df523b3ef60405160405180910390a46113718383836118ff565b505050565b6000600b60009054906101000a900473ffffffffffffffffffffffffffffffffffffffff16905081600b60006101000a81548173ffffffffffffffffffffffffffffffffffffffff021916908373ffffffffffffffffffffffffffffffffffffffff1602179055508173ffffffffffffffffffffffffffffffffffffffff168173ffffffffffffffffffffffffffffffffffffffff167f8be0079c531659141344cd1fd0a4f28419497f9722a3daafe3b4186f6b6457e060405160405180910390a35050565b8173ffffffffffffffffffffffffffffffffffffffff168373ffffffffffffffffffffffffffffffffffffffff1614156114ab576040517f08c379a00000000000000000000000000000000000000000000000000000000081526004016114a290612dbf565b60405180910390fd5b80600560008573ffffffffffffffffffffffffffffffffffffffff1673ffffffffffffffffffffffffffffffffffffffff16815260200190815260200160002060008473ffffffffffffffffffffffffffffffffffffffff1673ffffffffffffffffffffffffffffffffffffffff16815260200190815260200160002060006101000a81548160ff0219169083151502179055508173ffffffffffffffffffffffffffffffffffffffff168373ffffffffffffffffffffffffffffffffffffffff167f17307eab39ab6107e8899845ad3d59bd9653f200f220920489ca2b5937696c318360405161159c9190612cc2565b60405180910390a3505050565b6115b484848461110f565b6115c084848484611904565b6115ff576040517f08c379a00000000000000000000000000000000000000000000000000000000081526004016115f690612d1f565b60405180910390fd5b50505050565b606061161082610f04565b61164f576040517f08c379a000000000000000000000000000000000000000000000000000000000815260040161164690612e9f565b60405180910390fd5b6000600a6000848152602001908152602001600020805461166f906131d5565b80601f016020809104026020016040519081016040528092919081815260200182805461169b906131d5565b80156116e85780601f106116bd576101008083540402835291602001916116e8565b820191906000526020600020905b8154815290600101906020018083116116cb57829003601f168201915b5050505050905060006116f9611a9b565b905060008151141561170f578192505050611752565b60008251111561174457808260405160200161172c929190612c37565b60405160208183030381529060405292505050611752565b61174d84611ab2565b925050505b919050565b600081600001549050919050565b6001816000016000828254019250508190555050565b611795828260405180602001604052806000815250611b59565b5050565b6117a282610f04565b6117e1576040517f08c379a00000000000000000000000000000000000000000000000000000000081526004016117d890612e5f565b60405180910390fd5b80600a60008481526020019081526020016000209080519060200190611808929190612459565b505050565b60007f80ac58cd000000000000000000000000000000000000000000000000000000007bffffffffffffffffffffffffffffffffffffffffffffffffffffffff1916827bffffffffffffffffffffffffffffffffffffffffffffffffffffffff191614806118d857507f5b5e139f000000000000000000000000000000000000000000000000000000007bffffffffffffffffffffffffffffffffffffffffffffffffffffffff1916827bffffffffffffffffffffffffffffffffffffffffffffffffffffffff1916145b806118e857506118e782611bb4565b5b9050919050565b6118fa838383611c1e565b505050565b505050565b60006119258473ffffffffffffffffffffffffffffffffffffffff16611d32565b15611a8e578373ffffffffffffffffffffffffffffffffffffffff1663150b7a0261194e610f70565b8786866040518563ffffffff1660e01b81526004016119709493929190612c76565b602060405180830381600087803b15801561198a57600080fd5b505af19250505080156119bb57506040513d601f19601f820116820180604052508101906119b89190612859565b60015b611a3e573d80600081146119eb576040519150601f19603f3d011682016040523d82523d6000602084013e6119f0565b606091505b50600081511415611a36576040517f08c379a0000000000000000000000000000000000000000000000000000000008152600401611a2d90612d1f565b60405180910390fd5b805181602001fd5b63150b7a0260e01b7bffffffffffffffffffffffffffffffffffffffffffffffffffffffff1916817bffffffffffffffffffffffffffffffffffffffffffffffffffffffff191614915050611a93565b600190505b949350505050565b606060405180602001604052806000815250905090565b6060611abd82610f04565b611afc576040517f08c379a0000000000000000000000000000000000000000000000000000000008152600401611af390612eff565b60405180910390fd5b6000611b06611a9b565b90506000815111611b265760405180602001604052806000815250611b51565b80611b3084611d55565b604051602001611b41929190612c37565b6040516020818303038152906040525b915050919050565b611b638383611f02565b611b706000848484611904565b611baf576040517f08c379a0000000000000000000000000000000000000000000000000000000008152600401611ba690612d1f565b60405180910390fd5b505050565b60007f01ffc9a7000000000000000000000000000000000000000000000000000000007bffffffffffffffffffffffffffffffffffffffffffffffffffffffff1916827bffffffffffffffffffffffffffffffffffffffffffffffffffffffff1916149050919050565b611c298383836120dc565b600073ffffffffffffffffffffffffffffffffffffffff168373ffffffffffffffffffffffffffffffffffffffff161415611c6c57611c67816120e1565b611cab565b8173ffffffffffffffffffffffffffffffffffffffff168373ffffffffffffffffffffffffffffffffffffffff1614611caa57611ca9838261212a565b5b5b600073ffffffffffffffffffffffffffffffffffffffff168273ffffffffffffffffffffffffffffffffffffffff161415611cee57611ce981612297565b611d2d565b8273ffffffffffffffffffffffffffffffffffffffff168273ffffffffffffffffffffffffffffffffffffffff1614611d2c57611d2b82826123da565b5b5b505050565b6000808273ffffffffffffffffffffffffffffffffffffffff163b119050919050565b60606000821415611d9d576040518060400160405280600181526020017f30000000000000000000000000000000000000000000000000000000000000008152509050611efd565b600082905060005b60008214611dcf578080611db890613238565b915050600a82611dc891906130ba565b9150611da5565b60008167ffffffffffffffff811115611e11577f4e487b7100000000000000000000000000000000000000000000000000000000600052604160045260246000fd5b6040519080825280601f01601f191660200182016040528015611e435781602001600182028036833780820191505090505b5090505b60008514611ef657600182611e5c91906130eb565b9150600a85611e6b9190613281565b6030611e779190613064565b60f81b818381518110611eb3577f4e487b7100000000000000000000000000000000000000000000000000000000600052603260045260246000fd5b60200101907effffffffffffffffffffffffffffffffffffffffffffffffffffffffffffff1916908160001a905350600a85611eef91906130ba565b9450611e47565b8093505050505b919050565b600073ffffffffffffffffffffffffffffffffffffffff168273ffffffffffffffffffffffffffffffffffffffff161415611f72576040517f08c379a0000000000000000000000000000000000000000000000000000000008152600401611f6990612e7f565b60405180910390fd5b611f7b81610f04565b15611fbb576040517f08c379a0000000000000000000000000000000000000000000000000000000008152600401611fb290612d7f565b60405180910390fd5b611fc7600083836118ef565b6001600360008473ffffffffffffffffffffffffffffffffffffffff1673ffffffffffffffffffffffffffffffffffffffff16815260200190815260200160002060008282546120179190613064565b92505081905550816002600083815260200190815260200160002060006101000a81548173ffffffffffffffffffffffffffffffffffffffff021916908373ffffffffffffffffffffffffffffffffffffffff160217905550808273ffffffffffffffffffffffffffffffffffffffff16600073ffffffffffffffffffffffffffffffffffffffff167fddf252ad1be2c89b69c2b068fc378daa952ba7f163c4a11628f55a4df523b3ef60405160405180910390a46120d8600083836118ff565b5050565b505050565b6008805490506009600083815260200190815260200160002081905550600881908060018154018082558091505060019003906000526020600020016000909190919091505550565b60006001612137846109a0565b61214191906130eb565b9050600060076000848152602001908152602001600020549050818114612226576000600660008673ffffffffffffffffffffffffffffffffffffffff1673ffffffffffffffffffffffffffffffffffffffff168152602001908152602001600020600084815260200190815260200160002054905080600660008773ffffffffffffffffffffffffffffffffffffffff1673ffffffffffffffffffffffffffffffffffffffff168152602001908152602001600020600084815260200190815260200160002081905550816007600083815260200190815260200160002081905550505b6007600084815260200190815260200160002060009055600660008573ffffffffffffffffffffffffffffffffffffffff1673ffffffffffffffffffffffffffffffffffffffff16815260200190815260200160002060008381526020019081526020016000206000905550505050565b600060016008805490506122ab91906130eb565b9050600060096000848152602001908152602001600020549050600060088381548110612301577f4e487b7100000000000000000000000000000000000000000000000000000000600052603260045260246000fd5b906000526020600020015490508060088381548110612349577f4e487b7100000000000000000000000000000000000000000000000000000000600052603260045260246000fd5b9060005260206000200181905550816009600083815260200190815260200160002081905550600960008581526020019081526020016000206000905560088054806123be577f4e487b7100000000000000000000000000000000000000000000000000000000600052603160045260246000fd5b6001900381819060005260206000200160009055905550505050565b60006123e5836109a0565b905081600660008573ffffffffffffffffffffffffffffffffffffffff1673ffffffffffffffffffffffffffffffffffffffff168152602001908152602001600020600083815260200190815260200160002081905550806007600084815260200190815260200160002081905550505050565b828054612465906131d5565b90600052602060002090601f01602090048101928261248757600085556124ce565b82601f106124a057805160ff19168380011785556124ce565b828001600101855582156124ce579182015b828111156124cd5782518255916020019190600101906124b2565b5b5090506124db91906124df565b5090565b5b808211156124f85760008160009055506001016124e0565b5090565b600061250f61250a84612fbf565b612f9a565b90508281526020810184848401111561252757600080fd5b612532848285613193565b509392505050565b600061254d61254884612ff0565b612f9a565b90508281526020810184848401111561256557600080fd5b612570848285613193565b509392505050565b60008135905061258781613913565b92915050565b60008135905061259c8161392a565b92915050565b6000813590506125b181613941565b92915050565b6000815190506125c681613941565b92915050565b600082601f8301126125dd57600080fd5b81356125ed8482602086016124fc565b91505092915050565b600082601f83011261260757600080fd5b813561261784826020860161253a565b91505092915050565b60008135905061262f81613958565b92915050565b60006020828403121561264757600080fd5b600061265584828501612578565b91505092915050565b6000806040838503121561267157600080fd5b600061267f85828601612578565b925050602061269085828601612578565b9150509250929050565b6000806000606084860312156126af57600080fd5b60006126bd86828701612578565b93505060206126ce86828701612578565b92505060406126df86828701612620565b9150509250925092565b600080600080608085870312156126ff57600080fd5b600061270d87828801612578565b945050602061271e87828801612578565b935050604061272f87828801612620565b925050606085013567ffffffffffffffff81111561274c57600080fd5b612758878288016125cc565b91505092959194509250565b6000806040838503121561277757600080fd5b600061278585828601612578565b92505060206127968582860161258d565b9150509250929050565b600080604083850312156127b357600080fd5b60006127c185828601612578565b925050602083013567ffffffffffffffff8111156127de57600080fd5b6127ea858286016125f6565b9150509250929050565b6000806040838503121561280757600080fd5b600061281585828601612578565b925050602061282685828601612620565b9150509250929050565b60006020828403121561284257600080fd5b6000612850848285016125a2565b91505092915050565b60006020828403121561286b57600080fd5b6000612879848285016125b7565b91505092915050565b60006020828403121561289457600080fd5b60006128a284828501612620565b91505092915050565b6128b48161311f565b82525050565b6128c381613131565b82525050565b60006128d482613021565b6128de8185613037565b93506128ee8185602086016131a2565b6128f78161336e565b840191505092915050565b600061290d8261302c565b6129178185613048565b93506129278185602086016131a2565b6129308161336e565b840191505092915050565b60006129468261302c565b6129508185613059565b93506129608185602086016131a2565b80840191505092915050565b6000612979602b83613048565b91506129848261337f565b604082019050919050565b600061299c603283613048565b91506129a7826133ce565b604082019050919050565b60006129bf602683613048565b91506129ca8261341d565b604082019050919050565b60006129e2602583613048565b91506129ed8261346c565b604082019050919050565b6000612a05601c83613048565b9150612a10826134bb565b602082019050919050565b6000612a28602483613048565b9150612a33826134e4565b604082019050919050565b6000612a4b601983613048565b9150612a5682613533565b602082019050919050565b6000612a6e602c83613048565b9150612a798261355c565b604082019050919050565b6000612a91603883613048565b9150612a9c826135ab565b604082019050919050565b6000612ab4602a83613048565b9150612abf826135fa565b604082019050919050565b6000612ad7602983613048565b9150612ae282613649565b604082019050919050565b6000612afa602e83613048565b9150612b0582613698565b604082019050919050565b6000612b1d602083613048565b9150612b28826136e7565b602082019050919050565b6000612b40603183613048565b9150612b4b82613710565b604082019050919050565b6000612b63602c83613048565b9150612b6e8261375f565b604082019050919050565b6000612b86602083613048565b9150612b91826137ae565b602082019050919050565b6000612ba9602f83613048565b9150612bb4826137d7565b604082019050919050565b6000612bcc602183613048565b9150612bd782613826565b604082019050919050565b6000612bef603183613048565b9150612bfa82613875565b604082019050919050565b6000612c12602c83613048565b9150612c1d826138c4565b604082019050919050565b612c3181613189565b82525050565b6000612c43828561293b565b9150612c4f828461293b565b91508190509392505050565b6000602082019050612c7060008301846128ab565b92915050565b6000608082019050612c8b60008301876128ab565b612c9860208301866128ab565b612ca56040830185612c28565b8181036060830152612cb781846128c9565b905095945050505050565b6000602082019050612cd760008301846128ba565b92915050565b60006020820190508181036000830152612cf78184612902565b905092915050565b60006020820190508181036000830152612d188161296c565b9050919050565b60006020820190508181036000830152612d388161298f565b9050919050565b60006020820190508181036000830152612d58816129b2565b9050919050565b60006020820190508181036000830152612d78816129d5565b9050919050565b60006020820190508181036000830152612d98816129f8565b9050919050565b60006020820190508181036000830152612db881612a1b565b9050919050565b60006020820190508181036000830152612dd881612a3e565b9050919050565b60006020820190508181036000830152612df881612a61565b9050919050565b60006020820190508181036000830152612e1881612a84565b9050919050565b60006020820190508181036000830152612e3881612aa7565b9050919050565b60006020820190508181036000830152612e5881612aca565b9050919050565b60006020820190508181036000830152612e7881612aed565b9050919050565b60006020820190508181036000830152612e9881612b10565b9050919050565b60006020820190508181036000830152612eb881612b33565b9050919050565b60006020820190508181036000830152612ed881612b56565b9050919050565b60006020820190508181036000830152612ef881612b79565b9050919050565b60006020820190508181036000830152612f1881612b9c565b9050919050565b60006020820190508181036000830152612f3881612bbf565b9050919050565b60006020820190508181036000830152612f5881612be2565b9050919050565b60006020820190508181036000830152612f7881612c05565b9050919050565b6000602082019050612f946000830184612c28565b92915050565b6000612fa4612fb5565b9050612fb08282613207565b919050565b6000604051905090565b600067ffffffffffffffff821115612fda57612fd961333f565b5b612fe38261336e565b9050602081019050919050565b600067ffffffffffffffff82111561300b5761300a61333f565b5b6130148261336e565b9050602081019050919050565b600081519050919050565b600081519050919050565b600082825260208201905092915050565b600082825260208201905092915050565b600081905092915050565b600061306f82613189565b915061307a83613189565b9250827fffffffffffffffffffffffffffffffffffffffffffffffffffffffffffffffff038211156130af576130ae6132b2565b5b828201905092915050565b60006130c582613189565b91506130d083613189565b9250826130e0576130df6132e1565b5b828204905092915050565b60006130f682613189565b915061310183613189565b925082821015613114576131136132b2565b5b828203905092915050565b600061312a82613169565b9050919050565b60008115159050919050565b60007fffffffff0000000000000000000000000000000000000000000000000000000082169050919050565b600073ffffffffffffffffffffffffffffffffffffffff82169050919050565b6000819050919050565b82818337600083830152505050565b60005b838110156131c05780820151818401526020810190506131a5565b838111156131cf576000848401525b50505050565b600060028204905060018216806131ed57607f821691505b6020821081141561320157613200613310565b5b50919050565b6132108261336e565b810181811067ffffffffffffffff8211171561322f5761322e61333f565b5b80604052505050565b600061324382613189565b91507fffffffffffffffffffffffffffffffffffffffffffffffffffffffffffffffff821415613276576132756132b2565b5b600182019050919050565b600061328c82613189565b915061329783613189565b9250826132a7576132a66132e1565b5b828206905092915050565b7f4e487b7100000000000000000000000000000000000000000000000000000000600052601160045260246000fd5b7f4e487b7100000000000000000000000000000000000000000000000000000000600052601260045260246000fd5b7f4e487b7100000000000000000000000000000000000000000000000000000000600052602260045260246000fd5b7f4e487b7100000000000000000000000000000000000000000000000000000000600052604160045260246000fd5b6000601f19601f8301169050919050565b7f455243373231456e756d657261626c653a206f776e657220696e646578206f7560008201527f74206f6620626f756e6473000000000000000000000000000000000000000000602082015250565b7f4552433732313a207472616e7366657220746f206e6f6e20455243373231526560008201527f63656976657220696d706c656d656e7465720000000000000000000000000000602082015250565b7f4f776e61626c653a206e6577206f776e657220697320746865207a65726f206160008201527f6464726573730000000000000000000000000000000000000000000000000000602082015250565b7f4552433732313a207472616e736665722066726f6d20696e636f72726563742060008201527f6f776e6572000000000000000000000000000000000000000000000000000000602082015250565b7f4552433732313a20746f6b656e20616c7265616479206d696e74656400000000600082015250565b7f4552433732313a207472616e7366657220746f20746865207a65726f2061646460008201527f7265737300000000000000000000000000000000000000000000000000000000602082015250565b7f4552433732313a20617070726f766520746f2063616c6c657200000000000000600082015250565b7f4552433732313a206f70657261746f7220717565727920666f72206e6f6e657860008201527f697374656e7420746f6b656e0000000000000000000000000000000000000000602082015250565b7f4552433732313a20617070726f76652063616c6c6572206973206e6f74206f7760008201527f6e6572206e6f7220617070726f76656420666f7220616c6c0000000000000000602082015250565b7f4552433732313a2062616c616e636520717565727920666f7220746865207a6560008201527f726f206164647265737300000000000000000000000000000000000000000000602082015250565b7f4552433732313a206f776e657220717565727920666f72206e6f6e657869737460008201527f656e7420746f6b656e0000000000000000000000000000000000000000000000602082015250565b7f45524337323155524953746f726167653a2055524920736574206f66206e6f6e60008201527f6578697374656e7420746f6b656e000000000000000000000000000000000000602082015250565b7f4552433732313a206d696e7420746f20746865207a65726f2061646472657373600082015250565b7f45524337323155524953746f726167653a2055524920717565727920666f722060008201527f6e6f6e6578697374656e7420746f6b656e000000000000000000000000000000602082015250565b7f4552433732313a20617070726f76656420717565727920666f72206e6f6e657860008201527f697374656e7420746f6b656e0000000000000000000000000000000000000000602082015250565b7f4f776e61626c653a2063616c6c6572206973206e6f7420746865206f776e6572600082015250565b7f4552433732314d657461646174613a2055524920717565727920666f72206e6f60008201527f6e6578697374656e7420746f6b656e0000000000000000000000000000000000602082015250565b7f4552433732313a20617070726f76616c20746f2063757272656e74206f776e6560008201527f7200000000000000000000000000000000000000000000000000000000000000602082015250565b7f4552433732313a207472616e736665722063616c6c6572206973206e6f74206f60008201527f776e6572206e6f7220617070726f766564000000000000000000000000000000602082015250565b7f455243373231456e756d657261626c653a20676c6f62616c20696e646578206f60008201527f7574206f6620626f756e64730000000000000000000000000000000000000000602082015250565b61391c8161311f565b811461392757600080fd5b50565b61393381613131565b811461393e57600080fd5b50565b61394a8161313d565b811461395557600080fd5b50565b61396181613189565b811461396c57600080fd5b5056fea264697066735822122060873afa9a6cf30c2841aee572c6882c9ecb8543d54cd68050f6d05240de2f1f64736f6c63430008040033",
  "linkReferences": {},
  "deployedLinkReferences": {}
}